:020000040000FA
:060000000200FC021DE1FC
:03002B00021AB303
:03005300021E5436
:03006B00021A90E6
:10008300021D17E5C754F84401F5C77901220000A2
:100093000080FB120086B900030200E6E4791278BF
:1000A30008B800028004F709D8FCE4900281789C28
:1000B30079078002F0A3D8FCD9FA90091CAA82AB75
:1000C3008390012C783B79038015E493A3AC82AD34
:1000D300838A828B83F0A3AA82AB838C828D83D89D
:1000E300E9D9E77582967583B7740312010E758299
:1000F30091758300740012010E75D00075813F75F0
:100103001081751102759F00020096C09FF59FE450
:1001130073D09F22D083D082C09FE493C0E0740148
:1001230093C0E0740293F59F22FFFF0202020202D2
:1001330002020202010D000000100102989001006A
:10014300006E900294900100001E09028490010049
:10015300009E020294900100001F0902A690010074
:1001630000868F0294900100002009028A9001000A
:10017300006A8F0294900100002109027C90010023
:1001830000088F0294900100002209027A90010076
:1001930000D28E0294900100002309027E90010098
:1001A30000E48E0294900100002409028090010073
:1001B30000F68E029490010000250902A090010030
:1001C30000788F029490010000260902A29001009A
:1001D30000270901E803053F100A4D7568616D6D3D
:1001E3006164004E616D65206F66207468652075DB
:1001F300736572000298900100007490029490015C
:100203000000CC09102A8F010000CD090292900151
:100213000000D609FF00013075030201060000004B
:1002230000000000000000000000000000000000CB
:10023300000000000000000000FFFF0600800CE843
:10024300030C0968656C6C6F7365727665720201E5
:1002530005434332353430444B2D6D696E69204B71
:100263006579666F6200D206CC06FF000000780055
:1002730028002800283075A000A000A000A00000DE
:10028300080008E001F0001000100010001000103A
:1002930000100050005000500010001000D0070064
:1002A30000000000000F00307507001000307500DB
:1002B30000FFCA08E808D008FF02020A0A02500039
:1002C300A0000000E80302989001000077900294D8
:1002D30090010000AC0A028E900100008A0402948F
:1002E30090010000AD0A028C900100009F0402946B
:1002F30090010000AE0A02A490030000A10402943E
:1003030090010000AF0A028890030000A204029447
:1003130090010000B00A028690010000B10AFF01BB
:1003230000FF200298900100007190029490010058
:1003330000150B0282900000000000029090030061
:1003430000EF04CC0FCC0FCC0FCC0FCC0FCC0FCCC9
:100353000FCC0FCC0FCC0FCC0FCC0FCC0F9012A81F
:10036300128A12120117C2EA02120117CCEA021210
:10037300011702EB021201174BEB0212011785EB77
:1003830002120117E3EB0212011704EC0212011728
:100393000DEC0212011761EC021201178AEC021232
:1003A300011794EC021201179EEC021201170CEDD7
:1003B3000212011794ED0212011701EE0212011746
:1003C3002FEE02120117C0EE02120117FFEE021206
:1003D300011734EF0212011746EF0212011765EFFE
:1003E300021201176EEF0212011724F00212011715
:1003F300DCB2031201178BA803120117C1A8031261
:100403000117F5A80312011752AA03120117C3B566
:1004130003120117D9B503120117E3B5031201172C
:100423002DB603120117DFB60312011706FA0212E3
:10043300011719FA02120117FFFA021201173EFB04
:10044300021201175BFB0212011794FB0212011740
:10045300E1FB0212011713FC021201174AFC0212FC
:10046300011752FE02120117B7FE02120117CEB492
:1004730003120117F1B40312011720B50312011778
:1004830038B5031201177AB503120117949B0312AF
:100493000117B99B03120117E59B031201173EB71E
:1004A3000312011765A50112011741A701120117D4
:1004B300DCA8011201177CA901120117F7A9011287
:1004C300011778AA01120117A9AA0112011723AE75
:1004D30001120117A3AE01120117BAAF01120117DE
:1004E300F4AF0112011729B0011201175BB1011218
:1004F3000117A3B101120117ECB10112011743B2A5
:10050300011201178EB201120117BCB201120117B9
:10051300DBB201120117C4B30112011703B40112B4
:100523000117B9B401120117D0B40112011713B5A1
:1005330001120117B1B6011201172EB701120117EB
:100543006CB701120117E67F00120117B2FF011207
:100553000117F1FF011201174FB80312011716FF1C
:100563000112011726FF011201173BFF01120117A8
:10057300AFFF01120117DAB1031201175FB20312C1
:100583000117C3B203120117C4FE02120117E6FEDC
:100593000212011747FF0212011759FF0212011736
:1005A300A9FF02120117E7FF02120117EAFF021265
:1005B300011752F00212011760F002120117DAF06C
:1005C30002120117ACF1021201176CF402120117A7
:1005D300D1F40212011728F502120117F87F001255
:1005E300011746A603120117E1A70312011742A838
:1005F3000312011788A803120117FAFF0212011749
:1006030056AF0312011782AF031201173FB0031253
:100613000117DEAD0312011730AE031201178AAEC4
:1006230003120117F3AE031201176EA10312011790
:1006330098A10312011773A20312011768A30312EF
:100643000117ACCF021201178BD002120117CCD0C5
:10065300021201172AD1021201177ED102120117C9
:10066300D4D10212011768D2021201176BD30212FE
:10067300011729D502120117B4D5021201171DD68D
:10068300021201172BD60212011749D702120117C2
:10069300849B021201178D9E0212011719A00212E8
:1006A300011767A00212011781A00212011701A10D
:1006B3000212011714A302120117C4A60212011792
:1006C300729003120117A39203120117819303126D
:1006D30001178493031201173BAC0312011752ACA9
:1006E3000312011781AC03120117BAAC03120117ED
:1006F300E2AC0312011710AD0312011727AD031269
:1007030001173EAD0312011754AD031201177BAD60
:10071300031201178EAD03120117A4AD03120117C3
:10072300CCAD0312011781B30212011782B4021276
:100733000117B7B402120117D8B402120117E8B4B3
:100743000212011709B50212011711B6021201179D
:10075300D7B6021201178BB7021201170DB8021296
:10076300011710B80212011747B8021201176FB828
:10077300021201174FB902120117B0B90212011781
:100783001DBA0212011797BA021201179ABA02127E
:1007930001179DBA0212011747BB021201175FBB73
:1007A3000212011789BB02120117B2BB0212011711
:1007B3008ABC0212011747BD021201173AF5021251
:1007C300011762F50212011790F502120117C7F51E
:1007D300021201172FF60212011778F602120117FF
:1007E300C8F60212011706F70212011743F70212A5
:1007F300011771F70212011700F8021201170AF824
:100803000212011717F8021201174AF80212011710
:1008130016F90212011722F9021201173AF902120C
:10082300011744F902120117D6B303120117E4B3F7
:1008330003120117FCB30312011714B403120117B7
:1008430087C70112011729C801120117A1C8011294
:100853000117BFC901120117E2C90112011781CAA9
:100863000112011758CB0112011791CC0112011784
:1008730035CD01120117A7CD01120117AACE01121E
:100883000117F9CE011201171DCF0112011744D12F
:100893000112011788D101120117AAD10112011700
:1008A300F8D101120117FAD201120117E7D301128D
:1008B3000117E9DE02120117BBDF0212011766E01E
:1008C30002120117A3E00212011730E1021201170D
:1008D300BCE10212011793E202120117C2E20212F3
:1008E300011783E302120117C2E3021201174EE458
:1008F3000212011792E402120117B8E4021201175F
:1009030059B6031201172E940312011744940312CC
:1009130001176A94031201178595031201178F9526
:1009230003120117DA9603120117DA97031201175C
:10093300008003120117F8800312011724810312A8
:100943000117D6820312011765B801120117C8B83F
:100953000112011708BA0112011718BA011201177F
:100963003BBA0112011786BA011201172DBB0112FE
:10097300011741BC0112011715BD0112011789BEF0
:1009830001120117C2BE0112011763BF0112011741
:1009930089BF011201175CC10112011761C1011264
:1009A300011748C3011201178FC301120117FEC3B8
:1009B3000112011726C401120117C5C40112011740
:1009C30087C501120117B8C501120117BBC5011272
:1009D300011703C60112011745C601120117B2C65A
:1009E30001120117E0A303120117F3A30312011766
:1009F3000CA40312011751A4031201172AA5031211
:100A03000117CFA5031201171CA6031201173C25DA
:100A13000012011748250012011781250012011742
:100A2300C325001201177A2600120117FC260012B3
:100A330001172627001201175F27001201179729B4
:100A430000120117742B001201174A2D001201170F
:100A5300882E00120117E83000120117F631001238
:100A630001174133001201177F34001201179C3420
:100A730000120117D43400120117EE3400120117CB
:100A8300643500120117583A00120117FB3A00129D
:100A93000117583B001201177F3B00120117D03B8F
:100AA30000120117EE3B001201174C3C0012011714
:100AB300463D00120117C83D00120117B2BD0212D4
:100AC3000117BCBD0212011776BE02120117AEBE9A
:100AD30002120117DBBE021201173ABF02120117FD
:100AE30060BF02120117A2BF02120117DEBF02127A
:100AF300011706C00212011738C10212011775C18E
:100B030002120117B0C102120117ECC10212011740
:100B130010C2021201175EC20212011798C202121A
:100B23000117DAC2021201170DC30212011738C3EB
:100B33000212011793C302120117CCC30212011749
:100B430045C40212011784C402120117C3C402125E
:100B530001170AC50212011734C50212011771C524
:100B6300021201179BC502120117CCC5021201170D
:100B73000BC6021201173EC60212011787C60212E4
:100B83000117D0C602120117FAC602120117998C77
:100B930003120117D78C031201173A8D03120117A1
:100BA300F68D03120117D78E03120117058F031257
:100BB3000117F28F03120117D18D02120117EA8D6B
:100BC30002120117228F021201170B900212011752
:100BD3002A9002120117EB900212011731920212AE
:100BE30001170F9302120117899602120117169724
:100BF30002120117DA9702120117CA98021201179B
:100C0300369A02120117CC9A02120117479B02125D
:100C13000117E4970312011711980312011775982E
:100C2300031201178098031201178B9803120117FF
:100C3300969803120117C898031201179A99031281
:100C43000117179A03120117A79A03120117B09AF3
:100C530003120117D09A03120117DF9A0312011727
:100C6300F79A03120117009B03120117179B031234
:100C73000117389B03120117419B031201174D9B68
:100C830003120117569B03120117669B03120117E8
:100C9300709B031201177A9B031201178A9B03129D
:100CA3000117C5B0031201172EB10312011782B148
:100CB30003120117A9B1031201176184031201176B
:100CC300CE84031201171085031201170586031240
:100CD3000117088703120117F287031201171FC7B1
:100CE3000212011761C7021201174AC80212011743
:100CF3002AC90212011725CA0212011705CB0212D3
:100D0300011771CB021201172FCC021201179FCCCE
:100D13000212011706CD0212011731CD021201177B
:100D230097CD021201173FCE02120117B0CE021265
:100D33000117C9CE021201170DCF0212011726CFD8
:100D43000212011785CF0212011788CF0212011771
:100D5300829E03120117AA9E03120117E89E031233
:100D63000117959F0312011709A00312011725A06C
:100D7300031201174DA0031201177DA003120117DF
:100D83008CA00312011700A10312011726A103125D
:100D93000117A99001120117F39101120117829310
:100DA300011201174A9401120117959401120117B8
:100DB300E09401120117FE940112011740950112EC
:100DC30001175C9501120117AA9501120117D99514
:100DD300011201170D96011201175A9601120117FC
:100DE300CD9601120117949A01120117F29B011279
:100DF30001175E9C01120117D89C01120117829EF4
:100E030001120117DB9E0112011712A00112011733
:100E13006DA001120117E0A0011201172CA101120C
:100E2300011752A1011201171BA2011201173AA2C5
:100E33000112011765A201120117DBA201120117AA
:100E430051A30112011799A301120117BBA30112A8
:100E53000117B5A401120117E2A40112011740A55D
:100E63000112011793F301120117BEF301120117C7
:100E73007AFA0112011714FC01120117B0FD0112D5
:100E83000117F3FE01120117313E00120117B03EA4
:100E930000120117DD3E00120117233F0012011754
:100EA300303F00120117394000120117654000124C
:100EB30001179C40001201176B42001201172943CE
:100EC300001201179E4300120117CD4400120117AF
:100ED3002846001201172A470012011787480012FB
:100EE3000117A04800120117FA4800120117E1493F
:100EF30000120117144A00120117844A0012011745
:100F0300074B00120117514B001201171B4C001223
:100F130001171E4D00120117FD4D00120117884ED7
:100F230000120117ED4E001201175C4F001201175A
:100F3300854F00120117455000120117B9510012D5
:100F43000117D65100120117F551001201179B52D8
:100F530000120117C352001201173E53001201176A
:100F6300985300120117EA54001201177E5500121C
:100F730001174A5600120117008002120117508010
:100F8300021201175C80021201173B810212011742
:100F93006B8102120117A381021201171E82021232
:100FA3000117568202120117AA8202120117E78261
:100FB300021201170985021201173B87021201175A
:100FC3003089021201170B8B021201172D25001213
:100FD3000117826B00120117CC6B001201176072AC
:100FE30000120117BF7300120117137A00120117C1
:100FF3000E7B001201174B7B001201176E7B001250
:101003000117B07B00120117B97B00120117C37BD4
:1010130000120117AF7C00120117A37D0012011704
:10102300785600120117E65F00120117EC5F0012F9
:101033000117C76600120117AF880312011745890C
:10104300031201175B8903120117CA8903120117DF
:10105300158A03120117538A031201179F8A031279
:1010630001171C8B03120117608B03120117698B85
:1010730003120117758B031201178F8B03120117CC
:10108300CB8B03120117E18B031201170A8C031296
:101093000117698C031201172DE50212011740E5B0
:1010A300021201175AE50212011783E50212011712
:1010B300C6E50212011705E60212011743E6021202
:1010C3000117A8E602120117BDE602120117C8E6CE
:1010D30002120117D5E602120117ECE602120117FC
:1010E300FAE60212011705E70212011711E70212CD
:1010F300011724E7021201172FE70212011752E723
:1011030002120117FEE7021201170EE8021201177D
:101113002DE8021201174AE8021201175BE80212D6
:10112300011777E80212011785E8021201178FE809
:1011330002120117A3E802120117C4E802120117F1
:1011430025E9021201172BE90212011731E90212F4
:10115300011737E9021201173DE90212011764E989
:10116300021201179FE902120117B9E902120117CE
:1011730004EA0212011737EA0212011723E50112EA
:101183000117A5E50112011761E601120117F3E743
:101193000112011749EA011201171CEB0112011791
:1011A30051EB011201178FEB01120117FFEB011233
:1011B3000117BCED01120117E5ED0112011771EEE4
:1011C30001120117A3EE01120117B0EE011201176C
:1011D300FBEE0112011721EF01120117EDF10112CC
:1011E3000117EAF20112011746F3011201176ED635
:1011F3000112011799D70112011788D8011201179B
:1012030092D801120117B4D801120117C0D80112E4
:10121300011759DA0112011786DA011201179FDB50
:1012230001120117FADB0112011766DD0112011722
:1012330040DE01120117A8DE0112011710DF0112AF
:10124300011745DF0112011788DF011201173EE282
:101253000112011756E201120117EBE20112011705
:10126300F9E20112011746E30112011754E30112D7
:101273000117BFE30112011730E40112011787E4DC
:101283000112011752A80212011774A802120117C2
:1012930085AA021201175AAD0212011779AE021282
:1012A300011737AF021201172DB0021201178CAAD2
:1012B30003120117B1AA031201171FAB031201177F
:1012C30092D7021201179BD702120117A4D7021259
:1012D300011786D8021201173BDA021201176FDADF
:1012E300021201179EDA02120117D2DA0212011753
:1012F30001DB0212011735DB0212011761DB021257
:101303000117A4DB02120117D3DB021201171ADC47
:101313000212011770DC02120117A3DC021201177B
:10132300F3DC0212011722DD0212011771DD021232
:101333000117B4DD02120117E3DD0212011714DEF7
:10134300021201174ADE02120117EBB7031201174B
:10135300B97F0012011731B803E066701008A3E0EB
:1013630066700A08A3E066700408A3E06622E493AB
:101373006670130874019366700C087402936670A8
:1013830005087403936622C3E7960809E7960809DC
:10139300E7960809E79622C3E09608A3E09608A318
:1013A300E09608A3E09622C008C3E096F50808A3D8
:1013B300E096420808A3E096420808A3E096450891
:1013C3007001D3D00822080808EAC0E0EBC0E08629
:1013D300F0E7A4FA180986F0E7A42AFA180986F0B8
:1013E300E7A42AFA180986F0E7A42AFA1986F0E78F
:1013F300A4FBE5F02AFA190886F0E7A42BFBE5F035
:101403003AFA190886F0E7A42BFBE5F03AFA181824
:101413000986F0E7A4C5F02BFBE43AFA1908E7C5FF
:10142300F0C6A426F6E5F03BFBE43AFA1886F0E7AB
:10143300A4F6E5F00826F6E43B08F6E43A08F6D00D
:10144300E0FBD0E0FA22E4CFC0E0E4CEC0E0E4CD9C
:10145300C0E0E4CCC0E075F020C3E633F608E63321
:10146300F608E633F608E633F6181818EC33FCED05
:1014730033FDEE33FEEF33FFC3EC9709ED9709EE2F
:101483009709EF97191919400FFFEC97FC09ED978E
:10149300FD09EE97FE191906D5F0BEECF709EDF735
:1014A30009EEF709EFF7191919D0E0FCD0E0FDD0E8
:1014B300E0FED0E0FF226016080808C6C313C61872
:1014C300C613C618C613C618C613C6D5E0EA2270DB
:1014D30009080808226016181818C6C333C608C6B8
:1014E30033C608C633C608C633C6D5E0EA22E627A4
:1014F300F60809E637F60809E637F60809E637F687
:1015030022E026F608A3E036F608A3E036F608A3A1
:10151300E036F622E026F008A3E036F008A3E03632
:10152300F008A3E036F022C3E697F60809E697F63B
:101533000809E697F60809E697F622C3E0C696F689
:1015430008A3E0C696F608A3E0C696F608A3E0C68D
:1015530096F622C3E096F008A3E096F008A3E0967F
:10156300F008A3E096F022E056F608A3E056F6084A
:10157300A3E056F608A3E056F622E056F008A3E0EF
:1015830056F008A3E056F008A3E056F022E046F632
:1015930008A3E046F608A3E046F608A3E046F622D1
:1015A300E046F008A3E046F008A3E046F008A3E015
:1015B30046F022E0F608A3E0F608A3E0F608A3E06D
:1015C300F622E6F008A3E6F008A3E6F008A3E6F0A7
:1015D30022E0FAA3E0FBA3E0FCA3E0FD22EAF0A3F0
:1015E300EBF0A3ECF0A3EDF022CAC0E0E6F0A30811
:1015F300DAFAD0E0FA22CAC0E0E0A3C582CCC58201
:10160300C583CDC583F0A3C582CCC582C583CDC5B3
:1016130083DAE6D0E0CA22C3E498F8E499F9121613
:101623005B8026C3E49AFAE49BFBE920E7E9121600
:101633005BE498F8E499F922C3E498F8E499F91281
:10164300165BE498F8E499F9C3E49AFAE49BFB2265
:10165300EB20E7CFE920E7E0B90010BB0008E88AF8
:10166300F084F8AAF022E4FBC8FA22EB70227B1084
:10167300C833C8C933C9335007C39AC3DBF28006E2
:101683009A50012ADBEAC833F4C8C933F4C9FA22F1
:1016930075F008E4C833C8C933C933C99AC99B5024
:1016A30004C92AC93BD5F0ECFBC833F4C8E4C9FA32
:1016B30022600D08C6A2E713C618C613C6D5E0F309
:1016C30022600C08C6C313C618C613C6D5E0F4229D
:1016D300700422600D18C6C333C608C633C6D5E0EE
:1016E300F41822251010AF08F510400215118008D8
:1016F300F51040021511D2AF22C0D0251010AF084B
:10170300F510500205118008F51050020511D2AFF3
:10171300D0D0222510F58210AF08F5104002151124
:101723008008F51040021511D2AF851183222510D0
:10173300F582E43511F58322E4732510C582C0E0F8
:10174300E51134FFC583C0E0E510C3958224F8108A
:10175300AF088583118582108008858311858210E7
:10176300D2AFCEF0A3E520F0A37808E608F0A3DE1D
:10177300FAEFF0A3E58124FAF8E608F0A3E608F00F
:10178300A3E608F0A30808E608F0A3E608F0A3150B
:10179300811581D0E0FED0E0F8158115811581E82F
:1017A300C0E0EEC0E0222510C582C0E0E51134FFA1
:1017B300C583C0E0E510C3958224F910AF08858383
:1017C300118582108008858311858210D2AFCEF0F7
:1017D300A3E520F0A37808E608F0A3DEFAEFF0A370
:1017E300E58124FBF8E608F0A3E608F0A30808E681
:1017F30008F0A3E608F0A315811581D0E0FED0E040
:10180300F815811581E8C0E0EEC0E02285118385DB
:101813001082E0A3FEE0A3F5207808E0A3F608DF3A
:10182300FAE0A3FFE0A3C0E0E0A3C0E0E0A3C0E0D0
:10183300E0A3C0E0E0A3C0E010AF08858210858379
:10184300118008858210858311D2AFD083D08202A4
:101853000114851183851082E0A3FEE0A3F52078AF
:1018630008E0A3F608DFFAE0A3FFE0A3C0E0E0A3EB
:10187300C0E0E0A3C0E0E0A3C0E010AF08858210A1
:101883008583118008858210858311D2AFD083D0E0
:101893008222C0D02510C582C0E0E51134FFC58384
:1018A300C0E0E510C3958224F310AF08858311854A
:1018B30082108008858311858210D2AFC8F0A3E916
:1018C300F0A3EAF0A3EBF0A37908E709F0A3D8FAB1
:1018D300ECF0A3EDF0A3EEF0A3EFF0A3D0E0F0A3C0
:1018E300D0E0F0A3D0E0F0A3E520F0A3E5F0F0A36F
:1018F30022851183851082E0C0E0A3E0F9A3E0FA1A
:10190300A3E0FBA37808E0F608A3DFFAE0FCA3E07A
:10191300FDA3E0FEA3E0FFA3E0C0E0A3E0C0E0A3DB
:10192300E0F5D0A3E0F520A3E0A3F5F010AF088520
:1019330083118582108008858311858210D2AFD0F0
:1019430082D083D0E0F8D0E0327404800674028041
:10195300027401C0E0F404121716D0E01215EC2251
:101963007404800474028000CCC0E0EDC0E0E51094
:10197300C39CCCAD1150011D10AF068C108D11808E
:10198300068C108D11D2AF1215F9D0E0FDD0E0FC1A
:1019930022D083D082E9C0E0E493A3C386F0C5F0EC
:1019A30095F0F908E493A386F0C5F095F0700BE485
:1019B30093A3C3994005E9048002A3E475F002A44C
:1019C3002582F582E5F03583F583D0E0F9E493A32E
:1019D300C0E0E493C0E022D083D082ECC0E0EDC04D
:1019E300E0E493A3FCE493A3FDED4C600D121A26EF
:1019F300EC24FFFCED34FFFD80EFE493A3FCE493C0
:101A0300A3FDED4C600D121A65EC24FFFCED34FFD1
:101A1300FD80EFD0E0FDD0E0FCE493A3C0E0E493CD
:101A2300C0E022C0E0C3E493960874019396184083
:101A33000FE49366700808740193661870007019B8
:101A4300A3A3C3E49396087401939618A3A3400D2C
:101A5300D0E0D0E0D0E0021A16A3A3A3A3A3A3D09F
:101A6300E022C0E0C0F088F0E493667008087401D7
:101A73009366187000A8F0A3A3700BD0F0D0E0D049
:101A8300E0D0E0021A16A3A3D0F0D0E022C0E074A5
:101A9300F2121895E589A2E04006E589A2E1500318
:101AA3001205A0758900758900C2C57F010218F46B
:101AB300C2C753BEFC3274F51217A9EAFEEBFFEE60
:101AC3002434F8EF3400F988088909EE2435F582C7
:101AD300EF3400F583E0F8EE2437F582EF3400F5B8
:101AE30083E0F50AEC850AF0A4FCAAF0850AF0ED80
:101AF300A42AFDE82CF8E43DF97A257B0012165B55
:101B0300EA850882850983F05407F87401B8000256
:101B13008004C333D8FCC0E0E0131313541FF8EE62
:101B230028F8EF3400F9E8245DF582E93400F58301
:101B3300D0E0F8E0586008EE2434F582EF801EEE22
:101B43002436F582EF3400F583E0F5F0EA84A8F05B
:101B5300EE28F8EF3400F9E82438F582E93400F58B
:101B630083E0F97F0402185574F51217A98A088BCC
:101B730009EA2434F582EB3400F583E0C0E0EA247B
:101B830035F582EB3400F583D0E0F08A828B83A3B2
:101B9300A3A3A3A3A3A3C082C0838A828B83A3A38B
:101BA300A3A3A3E0F8A3E0F9D083D082E0C398FE17
:101BB300A3E099FFEA2480F582EB3400F583E06427
:101BC300017049EA2481F582EB3400F583E0FCA33C
:101BD300E0FD8A828B83A3A3A3A3A3A3A3E0FAA319
:101BE300E0FBC3E89AE99B4003021C97C3EA9CEB22
:101BF3009D40197CCC7D06AA08AB09120F30E5087D
:101C03002480F582E5093400F583E4F0E508243403
:101C1300F8E5093400F9E8FCE9FDE5082435F58227
:101C2300E5093400F583E0F8E5082437F582E50992
:101C33003400F583E0F50AEE850AF0A4FEAAF085E8
:101C43000AF0EFA42AFFE82EF8E43FF97A257B0097
:101C530012165BEA8C828D83F05407F87401B80086
:101C6300028004C333D8FCC0E0E0131313541FF8FD
:101C7300E50828F8E5093400F9E8245DF582E9343C
:101C830000F583D0E0F8E0586017E5082434F582C6
:101C9300E509802FC3E89CE99D5003021BF6021B54
:101CA300EFE5082436F582E5093400F583E0F5F025
:101CB300EA84A8F0E50828F8E5093400F9E82438AF
:101CC300F582E93400F583E0F912251F021B66C093
:101CD30082C083851082851183E0F8A3E0F9C3EA0B
:101CE3009CEB9D500BC3EC98ED9940127901801049
:101CF300C3EA98EB9940F5C3EC98ED9950EE79005F
:101D0300D083D08222EAC39CFAEB9DFB2285128703
:101D13008513C622C0E0C0D0E8C0E0E9C0E0EAC055
:101D2300E0EBC0E0ECC0E0EDC0E0C082C083C0F0F7
:101D3300759B00906182E0A2E6503DE591A2E650DA
:101D4300377591BF900599E0640570081210681209
:101D53001074800312106E7512001210E0E99005E2
:101D63009AF079001210D4120EA07A017B0090052C
:101D730098E0F91203C68049E0A2E55024E591A258
:101D8300E5501E7591DF900599E0640D7013900581
:101D9300BAE004F064287002E4F07A00E0F912116A
:101DA30070906181E0A2E35009E5E9A2E350037575
:101DB300E9F7A3E0A2E75009E591A2E75003759183
:101DC3007FD0F0D083D082D0E0FDD0E0FCD0E0FB28
:101DD300D0E0FAD0E0F9D0E0F8D0D0D0E032C0E0E3
:101DE300C0D0C082C083906183E0A2E05009E5BF08
:101DF300A2E0500375BFFEE0A2E15009E5BFA2E1F6
:101E0300500375BFFDE0A2E25009E5BFA2E2500313
:101E130075BFFBE0A2E35009E5BFA2E3500375BF22
:101E2300F7E0A2E45009E5BFA2E4500375BFEFE079
:101E3300A2E55009E5BFA2E5500375BFDFE0A2E6C6
:101E43005009E5BFA2E6500375BFBFD083D082809F
:101E530088C0E0C0D0E8C0E0E9C0E0EAC0E0EBC081
:101E6300E0ECC0E0EDC0E0C0F0E5A7A2E4500FE570
:101E7300A1A2E4500953A7EF75A1EF121EB9E5A77C
:101E8300A2E5500CE5A1A2E5500653A7DF75A1DF3B
:101E9300E5A7A2E15009E5A1A2E1500375A1FDE583
:101EA300A7A2E2500CE5A1A2E2500653A7FB75A13D
:101EB300FBD0F0021DCA74F81217A97512017A003B
:101EC3007B00121050A2AFE433FED2AF90059EE028
:101ED300640170187A207B00900598E0F912045091
:101EE3007A207B00900598E0F91203CC906182E0A0
:101EF300D2E6F085C613801690059DE06401700854
:101F0300E5C654F84405F5C653BEFC121D10740112
:101F1300651260E453BEFCEEA2E092AF7F010218AB
:101F2300558E148F15858219858318851082851126
:101F330083E0CEA3E0CF851982851883EBC9EAC875
:101F4300EDCBECCA75F010C3E833C8E933C9EA3303
:101F5300CAEB33CBC3EA9EF517EB9FF516B35004D8
:101F6300AB16AA17EC33CCED33CDD5F0DAAE14AF04
:101F7300152274F11217A974F41216E674041217D9
:101F830031ECF0A3EDF08A0A8B0B900599E024F76E
:101F9300C39405500690903A0220DD120FF68A088A
:101FA3008B09EA450970030220DA1210868A0C8B2A
:101FB3000DAE0CAF0D121086EA6E7002EB6F60EA85
:101FC300AC0AAD0B7406121731AA82AB8312108CC4
:101FD300850882850983A3A378081215B6909066B5
:101FE300780812156A85108285118378081215C541
:101FF3007406121731780C1215B6909066780C128D
:10200300156A851082851183780C1213AA402A85DC
:10201300108285118378081215B67808790C121589
:102023002A85080C85090D850A0E850B0F908FCE26
:10203300780C1213AA40438049850C08850D098545
:102043000E0A850F0B851082851183780812153EC1
:10205300908FCE78081213AA5020750800750900D6
:10206300750A00750B017808790C12152A85108200
:102073008511837808121504800890903A78081225
:1020830015B6750C19750D00780C12195074097872
:10209300081214D2FAAB09AC0AAD0B121F24740256
:1020A3001216FC8A0C8B0D8C0E8D0F7410780C128B
:1020B30014B9900599E06408600AE064066005E0DD
:1020C3006405701BC3EC9406ED94004012908FCA14
:1020D300780C1215048008909046780C1215B6748B
:1020E30004121731E0F8A3E0F5838882780C121507
:1020F300C5740C1216FC7F0802185574F71217A941
:1021030012109E12103EE5C654804449F5C6E59E62
:10211300547F644970F8906185740FF0900725E04F
:10212300F47002A3E0604E900726E0600814601B81
:1021330014602E8040750801750900900725E0782A
:10214300081216D3E508F45280802A750801750930
:1021530000900725E078081216D3E508F452908022
:1021630014750801750900900725E078081216D345
:10217300E508F452A079007F0202185574F712178C
:10218300A9E9FE902530E493F46008E493F9120E74
:102193008E800953C680E59E547F70FA12104490D6
:1021A3000725E0F47002A3E0604B900726E0600887
:1021B30014601A14602C803D75080175090090079E
:1021C30025E078081216D3E50842808028750801B7
:1021D300750900900725E078081216D3E5084290A8
:1021E3008013750801750900900725E07808121619
:1021F300D3E50842A0120FF68A088B09A808A9099B
:10220300E8496015E5E170FCE82414F582E934003F
:10221300F583E0F46003E0F5E174016E700A7A017E
:10222300900598E0F912041A02217A74F11217A9A1
:102233008A0C8B0D8C0E8D0F740F121731780812C8
:1022430015B6909066780C12156A9090667808120D
:10225300156A780C790812138A5015780C790812CC
:10226300152A908FC6780C1213AA40157901801392
:102273007808790C12152A908FC678081213AA4091
:10228300EB79007F0802185574F11217A974FC1238
:1022930016E6851082851183EAF0A3EBF0A3ECF038
:1022A300A3EDF0741312173178081215B6909066E7
:1022B300780C1215B6851082851183780C12157D62
:1022C300909066780812156A8510828511837808C4
:1022D30012139A4014851082851183780C1215B657
:1022E300780C790812152A801E750C00750D00757F
:1022F3000E00750F01780C790812152A8510828556
:102303001183780C121504AA0CAB0DAC0EAD0F742F
:10231300041216FC02228674F11217A98A0C8B0D83
:102323008C0E8D0F740F12173178081215B690901A
:1023330066780C12156A909066780812156A780808
:10234300790C12138A4011780C790812152AAA0CF9
:10235300AB0DAC0EAD0F800F7808790C12152AAABD
:1023630008AB09AC0AAD0B0222869090667808127E
:1023730015B68A828B83780812157D7F040218555F
:1023830074F51217A98C828D8378081215B68A8288
:102393008B837808121556EA2404F8EB3400F98C81
:1023A300828D83A3A3A3A3E0FCA3E0FD888289839A
:1023B300C3E09CF0A3E09DF088828983C3E094206E
:1023C300A3E0944E4022908FF278081215B68A82C9
:1023D3008B8378081215178A828B83A3A3A3A3E0A8
:1023E3002420F0A3E0344EF0808074F51217A9E99D
:1023F300FE7A007B00900294E0640170089006E28C
:10240300E0FAA3E0FBEEC333F8E433F9745A28F59A
:1024130082748F39F583E02AF508A3E03BF5097848
:1024230008121950908FF61215D4121F2474021239
:1024330016FC8A088B098C0A8D0B74107808121409
:10244300B9AA08AB097F0402185574F11217A98AB7
:102453000C8B0D8C0E8D0F740F121731E0FAA3E065
:10246300FB7411121731E0F508A3E0F50974131298
:102473001731E0FEA3E0FF7808121950EA2401F5B2
:1024830008EB3400F509E4F50AF50B780C7908122A
:1024930013C990902278081215B6780C7908121394
:1024A300C9AA0CAB0DAC0EAD0F121F247402121689
:1024B300FC8A088B098C0A8D0B8B0DEA450D600491
:1024C3007A0180027A00741078081214B9EC2AFC9D
:1024D300ED3400FDECF8EDF97A717B0212165B889E
:1024E3000889098E828F8378081215C5ECF8EDF9F7
:1024F3007A717B0212165BEA2401F508EB3400F5CE
:1025030009740578081216D38E828F83A3A3A3A31D
:10251300E508F0A3E509F07F08021855C082C083DF
:10252300E9906000F0D083D08222020114FFFFFF04
:10253300FFFFFFFFFFFFFFFFFFC082C083E9900B98
:1025430014F002275274F712173DE99004B7F07C98
:10255300EF7D047AFF7BFF120A989004B874FFF0B2
:10256300A3F0A3E4F0A3F07905120A269004B7E0E0
:10257300F91209547AB07B0A120D560234CF74F45F
:1025830012173DEAFEEBFF5480602C9004B7E0F98C
:102593001203AE8A088B09EA450960138A828B838A
:1025A300E064B07003120A38AA08AB09120396EE6E
:1025B300FAEF6480FB80047A007B007F0402180F2B
:1025C30074F212173D74FC1216E6EAFEEBFF741266
:1025D300121731122D36EE4F700302266674021263
:1025E3001731EEF0A3EF123D30851082851183AAD7
:1025F30082AB8312094EE9F50A706BE50845096061
:10260300658E828F83123E27EE4F60577A067B00DA
:102613001204028A0C8B0DA80CA90DE849700575EC
:102623000A13804288828983E4F012266EA3EEF0B7
:10263300A3EFF088828983123C409004BD1226F6F2
:102643009004BD7005123D40801CE0FCA3E08003B4
:10265300EAFCEBFD8C828D831226F670F38C828D5F
:102663008380E2750A02A90A02355AA3122673224D
:10267300F088828983A32274F212173D890AE975CF
:10268300F017A4FEAFF09004BCE4F09004BA122655
:10269300F6600A1204089004BAE4F0A3F0EEFAEF2D
:1026A300FB1204028A088B09EA4509602BEEFCEF52
:1026B300FD79001203849004BA123C447B00800825
:1026C3001226E0E4F0A3F00BEBC3950A40F2E50A0F
:1026D3009004BCF079008002791302355FEB75F04A
:1026E30017A4F8A9F09004BAE028FAA3E0398A8283
:1026F300F5832212344EEA4B2274F412173D79000B
:10270300EAA2E0501B7508B475098F7808121950B6
:102713007C047D007A167B0B120A2074021216FCCD
:102723000225BEC082C0839004BD122759601C8855
:10273300828983A3A3E06A7003A3E06B8882898301
:1027430070E8A3A3A3A312344A80047A007B00D0C9
:1027530083D082020114123B52E8492274F012170B
:102763003D74FC1216E68A088B0985108285118355
:10277300E4F0A3F0EA2402F50CEB3400F50D122E7D
:10278300618A828B83A3A3A3A3E024FE603924FC84
:10279300604624FE605224FE605E24FE700302281D
:1027A3007724FE70030228F924FE7003022908240B
:1027B300FE700302291724FC700302292624FE70ED
:1027C300030229350229799004D67417F0A3E41281
:1027D30029881206DE022979851082851183AC824D
:1027E300AD83120A3E022942851082851183AC8291
:1027F300AD83120A440229427402121731AC82AD2E
:1028030083850A82850B831231DC8A0E8B0FAC0E13
:10281300AD0FEC4D604CE4F50EF50F780E12195028
:10282300750ED6750F04780E121950750ED7750FE5
:1028330004780E1219507408121731121967791699
:10284300850C82850D83122E7F1216FCE9FF70140E
:102853007CD67D04850C82850D8312344A1206F6DC
:10286300800E7F01850A82850B8312297C123D40ED
:10287300EF022943850A0E850B0F7402121731AC40
:1028830082AD83850E82850F831231DC8A0A8B0B1E
:10289300AC0AAD0BEC4D604D850E82850F83A3A36F
:1028A300121967750AD6750B04780A121950750A3E
:1028B300D7750B04780A12195074081217311219BC
:1028C300677916850C82850D83122E7F1216FCE91B
:1028D300FF70147CD67D04850C82850D8312344AE7
:1028E3001206FC808B7F01850E82850F8312297C63
:1028F300123D40022873851082851183AC82AD831B
:10290300120A4A803A851082851183AC82AD831204
:102913000A50802B851082851183AC82AD83120A05
:1029230056801C851082851183AC82AD83120A5CAC
:10293300800D851082851183AC82AD83120A62E912
:10294300FEEE6032850882850983A3E06414602665
:10295300850882850983A3A3A3A3E09004D6F08509
:102963001082851183123B4E9004D7123D40EEA393
:102973001229881206D8022B6AE0F8A3E0F9851021
:102983008285118322F07CD67D04850C82850D839C
:1029930012344E2274F012173D74FA1216E67404C0
:1029A3001217311231E9F508EB3400F5097C157D76
:1029B3000079007AD67B04120384E50824021233DB
:1029C3001085108285118385820C85830D780C1206
:1029D3001950850882850983123A09121950E508AE
:1029E3002405F50CE5093400F50D780C1219501285
:1029F3003A208508828509831230981216FC8A0CC6
:102A03008B0DAE0CAF0DE50A2402F50AE50B122E71
:102A130067EE4F7003022B438015740212173112B5
:102A2300344A888289831230D99004D6E004F09026
:102A330004D6E0C394054003022B43E4F50CF50DE3
:102A4300780C121950750CBF750D04780C121950BF
:102A5300750CC0750D04780C1219507406121731D9
:102A63001219677910122E751216FCE9705C85082D
:102A730082850983A3A3A3A3A3A3A3E0F89004BF20
:102A8300E0687046123A0D1219507CC07D04E508C7
:102A93002408FAE5093400FB12037E74021216FCC3
:102AA300E960278E828F83A3A3A3A312344A9004E1
:102AB300D6E0F50C7402780C1216D374D7250CF5F6
:102AC300827404350DF5831230D9740212173185DF
:102AD300820C85830D780C1219507402121731126F
:102AE3001967123A20EEFAEFFB12097874041216F2
:102AF300FC8A0C8B0DAE0CAF0D9004D6E0F50C7573
:102B03000D007402780C1216D374D6250CF87404D5
:102B1300350DF988828983A31226F67003022A14DD
:102B2300E82403080808E93400F9EE4F6003022A99
:102B33001D8882898374FFF0A3F09004D6E004F02B
:102B43009004D6E0600A1234401206EA790080133A
:102B5300850882850983123B4E7404121731123D96
:102B63003D790A7406800274041216FC7F08021869
:102B73000F74F012173D74F81216E674021217312F
:102B83001230D9740612173112333B740212173103
:102B9300E02405F8A3E0123436123D408510828507
:102BA300118312347AF508A3E0F5097E007F0074DF
:102BB3000412173185820A85830B780A121950741F
:102BC300021217311239F5F50A750B00780A12193A
:102BD300507404121731E02405F50AA3E0122E679E
:102BE300780A1219507406121731123463122D3EEB
:102BF30012096C74061216FC8A0C8B0DEA450D70D3
:102C030003022CDBEA2404122D1D122D368A828B3B
:102C130083A3A3A3E0F974021217311230C5600332
:102C2300022CDBE4F50AF50B780A121950750ABF7A
:102C3300750B04780A121950750AC0750B04780ACB
:102C4300121950740A1217311219677913AC0CADAB
:102C53000D740A1217311230A1122E7F1216FCE9DD
:102C6300FF70759004BFE0F8EE7009E02402900451
:102C7300D7F080149004D7E0FCE82402FAE434008F
:102C8300FBEA6C7001EB70538E82AA82122E6C9455
:102C930014122E595042850E82850F83E0C0E01234
:102CA300307DD0E01230CEC0E0123089D0E0123057
:102CB300DF121950122D071216FC9004BFE02EFEEE
:102CC30074FF6508700474FF6509600C122D29EE0A
:102CD300C394145003022BB2EE60121230A7740295
:102CE3001217311230B81206F079008012EF700219
:102CF3007F0A7406121731123463123C44EFF974DD
:102D030008022B6C7CC07D048E0A74D8250AFA74E1
:102D1300043400FB12036C740222F50EEB1233141D
:102D2300850E82F58322E5082401F508E5093400C0
:102D3300F50922E0F508A3E0F50922A3A3E0FCA32B
:102D4300E0FDAA08AB092274F012173D74FC1216B9
:102D5300E6740212173112333BEA2405F50EEB1227
:102D630033147F009004D6E4F0FEEA2402122E64AA
:102D730080489004D6E0FA9004BFE0F8122E6C94D9
:102D830017122E59400D9004D6E0F87416C398908C
:102D930004BFF0E0F50875090078081219507CC0EB
:102DA3007D0474D72AFA7404122D141216FC9004AD
:102DB300BFE0F89004D6E028F00EE50E2416F58265
:102DC300E50F3400F583E0F8EEC398507E9004D607
:102DD300E0C394165075EEC333F8E433F9E50E28D7
:102DE300F508E50F39F509851082851183AC82ADAD
:102DF30083850882123331AC0CAD0DEC4D70137F1B
:102E0300018508828509831231D6121731123D3D9F
:102E1300803FE4F50CF50D780C121950750CBF7555
:102E23000D04780C121950750CC0750D04780C1232
:102E3300195074061217311219677916122E791266
:102E430016FCE9FF7003022D7580B6123440120799
:102E530002EFF9022B6AE99400C365D03322EA2416
:102E630005F50AEB3400F50B22EA28F8E43400F9FF
:102E7300E822EEFCEFFD850A82850B8312344E12A5
:102E83000A8074082274F012173D74F81216E6854E
:102E930010828511831230D9740612173112333B15
:102EA300851082851183E02405F50CA3E03400F539
:102EB3000D7E007F00740412173185820885830913
:102EC3007808121950850C82850D83A3A3A3A3E070
:102ED300F5088E097808121950E50C2405F508E564
:102EE3000D3400F5097808121950850C82850D837D
:102EF300A3A3123A26850C82850D831230981216ED
:102F0300FC8A088B09801F8882898374FFF00E1264
:102F1300308974FF1230DF121950122D071216FC7C
:102F23009004BFE02EFEE5084509602985088285E7
:102F33000983A3A312297E1230C5E50824041233A2
:102F430010EF602B850E82850F83123B4E740612A1
:102F53001731123D3DEE70030230621230A7851027
:102F6300828511831230B8120708790002307AE49F
:102F7300F50AF50B780A121950750ABF750B047818
:102F83000A121950750AC0750B04780A1219507485
:102F93000A1217311219677911AC08AD09740812B6
:102FA30017311230A1122E7F1216FCE9FF70958E95
:102FB30082AA82EE9004BF7009E024049004D7F043
:102FC3008025E0F89004D7E0F50AE82404FCE43413
:102FD30000FDEC650A7001ED7081122E6C941212E3
:102FE3002E594003022F5E850E82850F83E0C0E0D9
:102FF30012307DD0E01230CEC0E0123089D0E0F044
:103003000E740212173185820A85830B780A12190E
:10301300507406121731121967850C82850D8312BD
:103023002D3E12097874041216FC8A088B098E0A45
:1030330074D8250AF874043400F9EA4509700302C8
:103043002F0A7402121731E088828983F00E74020A
:10305300121731A3E0C0E0123089D0E0022F17EF3E
:1030630070027F0A850C82850D83123B4E74061213
:103073001731123D3DEFF9022D0274D82AF58274FF
:10308300043400F583228E0A74D8250AF582740469
:103093003400F5832212344E12096C740622123462
:1030A30067A3A3229004D7E0F5F0EE849004D6F052
:1030B3007CD67D04221230BC22123D2AE0FAA3E022
:1030C300FB221230BC12095AE9FF22F00E850E8250
:1030D300850F83A3E022EAF0A3EBF022F00E900425
:1030E300BF123A3E2274F012173D74FC1216E674B6
:1030F300021217311231E9FEEB3400FF851082858D
:103103001183AC82AD838E828F831231DC8A088B6C
:1031130009EA450970030231A6E50A2402F50EE522
:103123000B1233148A828B83A3A3A3E0A2E550225C
:103133008510828511831239FB60637912AC08AD67
:1031430009850E82850F83123A1612173BE9F5089B
:103153007056E4F508F50978081219508E828F83AA
:10316300A3A3E0F5087808121950EE2403F508EF3D
:103173003400F50978081219508E828F83123A268B
:103183001234541216FCE9F508701D1231CA702965
:10319300850E82850F8312344A12070E801B750831
:1031A3000E80097508018004E508600D8E828F8307
:1031B3001231D6121731123D3D1231CA6004790023
:1031C3008002A908022B6AEE2418F582EF3400F579
:1031D30083E022123B527402221231E022E0FAA36E
:1031E300E0FB12097222ECF0A3EDF08A0A8B0BEAE2
:1031F30024052274F012173D74FC1216E6740212B1
:10320300173112333B8A0E8B0F122E61750800851E
:103213001082851183AC82AD83850A82123331AE6D
:103223000CAF0DEE4F70030232F9E50E2402F50EDA
:10323300E50F1233148E828F83A3A3A3E0A2E5507C
:103243002F85108285118312344A120A748A088BDF
:1032530009EA450960427912EEFCEFFD850E82858D
:103263000F8312332712173BE9F50860030232FC80
:10327300850E82850F83123E2BEEFAEFFB12331974
:1032830070127AFF7BFF123319606688828983EE9E
:10329300F0A3EFF07E00800675080E805C0E9004AC
:1032A300BCE0FAEEC39A5049EE75F017A4FAABF0FE
:1032B30088828983A3A3E02AFAA3E03BFB8A828B5B
:1032C30083123A26EC4D70D5750C17750D00780CEA
:1032D300121950AC0AAD0B12036C74021216FCAC3B
:1032E3000AAD0B850E82850F8312344A12071480B0
:1032F300177508098003750801850A82850B8312F7
:1033030031D6121731123D3DA908022B6AF50EE59D
:10331300093400F50F22120A688A0C8B0DA80CA938
:103323000DE8492212344E85088285098322F583EC
:103333001231E08A0C8B0D22ECF0A3EDF02274F035
:1033430012173D74FC1216E6740212173112333B46
:10335300EA2405F8EB123436123D40750900EA24DD
:1033630002122D1D12344A123DBD7003023425751D
:103373000800806E85108285118312347A6401708F
:103383004A8E828F83A3A31219678E828F83123A88
:1033930009121950EE2405F50CEF3400F50D780CE5
:1033A3001219501234541216FCE9F509601D8510E8
:1033B30082851183123463E4F08E828F8312344A40
:1033C30074021217311234631230D97C177D0079DD
:1033D30000EEFAEFFB1203848E828F83E4F0A3F0F6
:1033E30005089004BCE0F8E508C3985026E5087585
:1033F300F017A4F8A9F0850A82850B83A3A3E0281C
:10340300FEA3E039FF8E828F83123A26EC4D6003D0
:10341300023377850A82850B8374FFF0A3F0E509F5
:10342300700C850E82850F8312344A12071AA9097C
:10343300022B6A3400F9851082851183227CD67DA4
:1034430004850A82850B8312344E22E0FAA3E0FB43
:1034530022850E82850F8312344E120A8674062249
:103463001234672212346B22E0F8A3E0F5838882DA
:1034730022850A82850B83123467E022C082C083CF
:103483009004B8E06A7003A3E06B70067AB87B041B
:1034930080047A007B0002275274F712173D7F00E5
:1034A300EF75F003A4F8A9F0EC28F8ED39F9888258
:1034B3008983E06A7003A3E06B7006E8FAE9FB8096
:1034C3000B0FEFC3940240D87A007B007F010218F0
:1034D3000F74F612173D123AEF70067A007B0080E4
:1034E30007A3A3A3A312344A023BBC74F212173DF1
:1034F300E9FE740E121731E0F50AA3E0F50B741020
:10350300121731E0F50CA3E0F50D8C828D83E06496
:10351300027040123B4D88828983E0F508A3E0F9ED
:10352300A808740268700374296970277508027506
:1035330009007808121950850C08850D09780812BE
:103543001950780A121950EEF9120AAA74061216C3
:10355300FC80027901800574041216FC7F060218B0
:103563000F74F012173D74F61216E6740612173133
:103573001230D9740212173112333B74011217310E
:10358300E9F0741C121731122D3674201217311200
:103593003E2B851082851183E4F0740212173112D9
:1035A3003D21E0A2E4502F741A1217311239FB7037
:1035B30003023691790A7402121731123A267406FD
:1035C300121731123A1612173BE9851082851183BF
:1035D300F0600302369A740212173112347A6402CD
:1035E30060030239787402121731A3E0F5838882ED
:1035F300123B4D850882850983A385820E85830F3F
:103603007402121731E02406F50AA3E0122E67882C
:10361300828983E0FAA3E0F9EA2400F50CE439F5A2
:103623000D780C1219DA0100002801285136070021
:10363300022849370328B136002984380129AC38D8
:1036430002294C3803298438042915397839EE4F77
:103653007052850A82850B83123B4EE8FAE9FB8A96
:10366300828B83E0C0E0741E121731123463D0E002
:10367300123A351219508A828B83A3E0FCA3E0FD32
:10368300AA08AB0912036C74021216FC8009851098
:1036930082851183740EF0851082851183E0F9749D
:1036A3000A022B6C851082851183740B80E8EE4F20
:1036B30070F2741E1217311234637401F0123474F1
:1036C300850882850983F07C007D0074021217311E
:1036D3001239F52401FAA3E03400FB120972EA4B14
:1036E30060498A828B83E02402F8741E121731E04A
:1036F300F9A3E0F5838982E028F0EA2404F8EB34A7
:1037030000F988828983E0850E82850F83123A4708
:10371300123A351219508A828B83A3123A26E5088E
:103723002403FAE5093400FB023687741E121731AD
:1037330012347A2404F07C047D007900AA0EAB0FC6
:1037430012038402369AEE4F60030236A7123474D2
:10375300FEA3E0FF741E1217311234637404F0EEFB
:10376300850882850983F0EF850E82850F83F074C7
:1037730008121731AC82AD83EEFAEFFB1209728A9D
:103783000A8B0BEA450B700302382A8A828B83A3C8
:10379300A3123E27740412173185820C85830D789A
:1037A3000C121950740A1217311219677CFF7DFF2E
:1037B30012097874041216FC8B0DEA450D703385DB
:1037C3000A82850B83123A0D121950850A82850BE2
:1037D30083A31219677C027D007A967B901207B04F
:1037E30074041216FCE9700A740412173174FFF0A2
:1037F300A3F08E828F83E064027036750A02750B24
:1038030000780A1219508E828F83A3123A26E50894
:103813002404FAE509122D141216FC741E12173132
:1038230012347A240280097404121731EEF0A3EFE4
:10383300F074041217311239DBF07404121731A338
:103843001239D3A3A3A3023699EE4F60030236A71E
:10385300850A82850B83123A2674061217311234B5
:103863004A120A9E8A0A741E1217311239E5E50AB2
:10387300850882850983F0850E82850F83EB0236E6
:1038830099EE4F60030236A7123474F8A3E0F9747B
:103893001E1217311239E5E8850882850983F0E99C
:1038A300850E82850F83023699123444120366EA29
:1038B300FC8C82A882C39EE49F404CE86E7001EFAB
:1038C30070047C00801E7401121731E0FAEE2AFAAC
:1038D300EF3400FBC3EA98EB94005003E08004EE5E
:1038E300CCC39CFC741E121731123463ECF08C0CA5
:1038F300750D00780C121950850A82850B83E02E12
:10390300FCA3E03F0236828510828511837407028F
:103913003699EE4F60030236A7850A82850B831220
:103923003B4E741E1217311239EC7407F0888289EA
:10393300831239D312266FE0850E82850F83F0E858
:103943002402FAE93400FB8A828B831239D3123AB8
:103953002C1239DB12266EA3A3A31239DFF0E8245D
:1039630005F8E93400F9888289831239DFA3123A12
:1039730047A3023846741A121731123AE870030249
:103983003691123B4E880A890BE8450B70030236C9
:10399300918E0C8F0D780C1219507420121731125E
:1039A300196778081219507407121731E0F974086F
:1039B300121731123A26740C121731123A161217D3
:1039C3003B74061216FCE985108285118302369931
:1039D300E085088285098322123A4E22123A4EA3C9
:1039E300A3221239EC7402F022E0FAA3E0F5838AF1
:1039F3008222123D25A3E02212344E120A748A0A4F
:103A03008B0BEA450B22A3A3A3A3E0F50C750D00D2
:103A1300780C2212344E850A82850B8322850E820E
:103A2300850F83E0FCA3E0FD22A3A3F08A828B83AE
:103A3300A322F08A828B83123A3E22E0F50A750BA9
:103A430000780A22122673123A4E22E085088285F4
:103A53000983A3A32274F212173D74FC1216E674B1
:103A6300021217311230D9ECFAEDFB74141217312C
:103A7300E0FE7416121731E0F50AA3E0F50B85108A
:103A830082851183AC82AD831209728A088B09EA9D
:103A930045096044851082851183123AE86035A395
:103AA300A3123AE0E8450D602B780A1219507414FA
:103AB300121731121967EEF9AC08AD097406121723
:103AC3003112344A850C82850D8312173B7404121C
:103AD30016FC8006790E8002790102355A123B5298
:103AE300880C890D2212344E123AEF22120A328ABE
:103AF300828B83E58245832274F612173D74FE128E
:103B030016E6740C121731123B4EE88510828511AC
:103B130083F07401121731E9F0E4F508F509780828
:103B230012195075080278081219507404121731CB
:103B33008582088583097808121950120A8674064B
:103B43001216FC74021216FC806FA3123B5222E081
:103B5300F8A3E0F92274F712173DEAFEEBFF890898
:103B63007CEF7D04120A9EEA5402600BA908EEFA68
:103B7300EFFB120966800279010234CF74F6121743
:103B83003D74FF6A700374FF6B701C7B00EB75F070
:103B930003A4F8A9F0EC28F8ED39F9123BC10BEBBB
:103BA300C39402501480E6120A6E8A088B09A8088F
:103BB300A909E8496003123BC17F0202180F8882FA
:103BC300898374FFF0A3122673A3E4F02274F61220
:103BD300173D120A6E8A828B83E58245836006A3B2
:103BE300A3E0FA80027A007B0080CE74F212173DC4
:103BF3008A088B098C0A8D0B740E121731E0FE12A2
:103C03000A6E8A0C8B0DA80CA90DE8497022AC0A28
:103C1300AD0B7AFF7BFF120A6E8A0A8B0BA80AA9E7
:103C23000BE84970047911801188828983123C441E
:103C3300EE88828983A3A3F0790002355FA3A3A34F
:103C4300A3E508F0A3E509F02274F012173D74FE12
:103C53001216E685108285118312333B8A088B097D
:103C6300890B7412121731123B4E7414121731124E
:103C73003A26741612173112344A750A00EC4D6055
:103C830003023D177402650B6003023D12888289AB
:103C930083E0FCA3E0F9EC2400FEE439FFEAF4F846
:103CA300EBF4F9EE58F8EF59F9E849705D851082A5
:103CB300851183E02406F50EA3E0122D20122D407A
:103CC300120A9E8A0C8B0DEE650C7003EF650D6076
:103CD300468E0C8F0D780C121950850E82850F833A
:103CE300122D40120AA474021216FCE9F50A702779
:103CF300780C12195074021217311230A1122D3E92
:103D0300120AB674021216FC800D750A80800875BB
:103D13000A0D8003750A0BA90A7402022B6C123D6B
:103D23002522123D2AA32212346BA3A322F085106D
:103D330082851183ECF0A3EDF0221239ECE8F0A3B5
:103D4300E9F02274F212173D8A088B09E9FF740126
:103D53006F600D74026F705F7901120D74E9705713
:103D6300AA08AB09123DBD60437E00800A7C177D23
:103D73000079001203840E9004BCE0F8EEC398505F
:103D830020EE75F017A4F8A9F0850A82850B83A3AA
:103D9300A3E028FAA3E039FB8A828B8312275970A8
:103DA300CC850A82850B8374FFF0A3F07CEF7D043E
:103DB300AA08AB09120A9802355F120A688A0A8BAD
:103DC3000BEA450B2274F212173D8A0A8B0B8C08FF
:103DD3008D09740E121731123E2B900B14E0F46010
:103DE300407A097B00120390EA4B60358A828B8309
:103DF30074B1F0A3E4123A2EA3123A2CA3E50AF00D
:103E0300A3E50B123A2E123C408A828B83A3A3A311
:103E1300A3A3A3A3EEF0A3EFF0900B14E0F9120316
:103E23009C02355FA3A3A3A3E0FEA3E0FF22C0820D
:103E3300C0839061907404F0A37448F0A3E4F090FD
:103E430061807440F09061BC7407F090618774697D
:103E5300F09061B67416F090619A7433F0A37455C0
:103E6300F09061A0743AF090059C7461F090253A4B
:103E7300E493906186F0902530E493F46027E49313
:103E8300540FF8906185E0686012E5C65480444998
:103E9300F5C6E59E547F644970F8E8F053C680E5A3
:103EA3009E547F70FA790512113A024032C082C0E3
:103EB30083E9540FF9906185E0696012E5C6548087
:103EC3004449F5C6E59E547F644970F8E9F053C64A
:103ED30080E59E547F70FA024032C082C083E5A819
:103EE300F853A87E906181E4F0A3F0A3F0C2BA5323
:103EF3009AFEC289759B00C2C275E900759100756F
:103F0300BF0075A91175B905906181F0A374C0F064
:103F1300A3E4F0D2BA439A0174805842A802403213
:103F2300C082C083906181E4F0A302402FC082C0AD
:103F33008374F81216E690059BE07003024028A2F2
:103F4300E650237908851082851183AA82AB8312F8
:103F53000F84851082851183AA82AB83120B7C9018
:103F6300059BE0C2E6F0E0A2E75010790C7A477BAC
:103F730007120F8490059BE0C2E7F0E0A2E0502017
:103F830090619A7433F0A37455F09061A0743AF081
:103F930090059C7461F0120B8290059BE0C2E0F0E7
:103FA300E0A2E1502090619A743FF0A3745AF0901C
:103FB30061A0747FF090059C746AF0120B829005E7
:103FC3009BE0C2E1F0E0A2E25013902538E4939025
:103FD3006186F0120B8890059BE0C2E2F0E0A2E359
:103FE3005013902539E493906186F0120B88900565
:103FF3009BE0C2E3F0E0A2E4501390253AE49390EF
:104003006186F0120B8890059BE0C2E4F0E0A2E524
:10401300501390253BE493906186F0120B88900532
:104023009BE0C2E5F074081216FC8003F0A3F0D005
:1040330083D082020114C082C083E9600B14600D37
:1040430014600F1460118018902538800D90253965
:10405300800890253A800390253BE493906186F095
:1040630080CD74F612173D906186E0F875080075EF
:104073008238758325E49368701074BC2508F58233
:10408300748F3400F583E0F9800C0508A3E508C3B9
:10409300940440E17980024B0274F012173D74EFEF
:1040A3001216E67405121731AC82AD8375839075D1
:1040B300824274041215F990253893F46003024286
:1040C30061907808E0C39402500302424175838FE4
:1040D30075829374081215F97405121731A882A911
:1040E300837403121731E8F0A3E9F074091217314E
:1040F300AE82AF83740112173174FFF0A3F0851001
:1041030082851183F07C00750E48750F78801874D2
:10411300086C70030241B974096C70030241B974ED
:104123000A6C70030241B9850E82850F83780812E9
:1041330015B68E828F83A909E50AC9F8880C74180D
:1041430078081214B9E50C4508F8C3E098A3E09980
:10415300850E82850F8378081215B640188E828FDC
:1041630083741878081214B9E50C4508F8E0C3986D
:10417300F8A3E0801C741878081214B9E50C4508FC
:10418300FAE9FB8E828F83E0F8A3E0F9EAC398F89B
:10419300EB99F97401121731E0FAA3E0FBC3E89A33
:1041A300E99B50127401121731E8F0A3E9F0EC8592
:1041B3001082851183F00CE50E2404F50EE50F340F
:1041C30000F50FECC394135003024112740112174C
:1041D30031E0F47003A3E0F460318510828511832C
:1041E300E0F508740278081216D374482508F5829E
:1041F30074783509F58378081215B67403121731EC
:10420300E0F8A3E0F5838882E508F0EE24020E0EC1
:10421300EF3400FF7403121731E02401F8A3E034F4
:1042230000F97403121731E8F0A3E9F074111217BF
:1042330031E5826E7003E5836F60030240F7750812
:104243000175090078081219507407121731AC82EE
:10425300AD837A4E7B0912057C74021216FC74112D
:104263001216FC7F0802180F74F412173D74FC1227
:1042730016E6902534C082908FF278081215B67531
:104283008325D0827808121371600302431FE5C6A9
:1042930054804449F5C6E59E547F644970F875E53A
:1042A3000475DA0075DB0C75AF0075E40975E2007F
:1042B300E5AFA2E050FA75E20053C680E59E547F55
:1042C30070FA75E400E5E2851082851183F0E5E379
:1042D3007401121731E4F085108285118378081276
:1042E30015B6740178081214D290901E780812152E
:1042F3009085108285118378081215C5750801759C
:10430300090078081219507402121731AC82AD8378
:104313007A4D7B0912057C74021216FC7404121682
:10432300FC7F0402180FC082C08375E1F19006DFA1
:10433300E060551460081460591460518059120EDE
:10434300C49006D5E0F97AD67B061210B690901A7F
:104353001215D41210EC90905E1215D41210C29064
:1043630006E0E0F91210CE790112112E9006D3E087
:104373002416F8A3E03400F98882898374DCF0A35F
:10438300740EF07900024032120ECA80B4120ED0BD
:1043930080AF120ED680AA791280EA74F412173D08
:1043A30075D90D9006C5E0A2E0E4331313F8900627
:1043B300D5E0C4333354C0484401F5D978D37906E2
:1043C30088828983A3A3A3E0F5D988828983A3A8DC
:1043D30082A983E864D97003E9640670E378C57938
:1043E3000688828983A3E0F5D988828983A3A8827A
:1043F300A983E864CB7003E9640670E575E19590E1
:1044030006C5E0F97AC67B061210BC900B367464BD
:10441300F0A3740EF0A374CCF0A3740FF0A374CCC8
:10442300F0A3740FF0A374CCF0A3740FF0A3746A19
:10443300F0A3740EF0A374CCF0A3740FF0A37482F2
:10444300F0A3740EF0900B4474CCF0A3740FF0A39C
:1044530074CCF0A3740FF0A374CCF0A3740FF0A387
:1044630074CCF0A3740FF0A374CCF0A3740FF0A377
:1044730074CCF0A3740FF09006D3E0F8A3E0F583B7
:104483008882A3A378081215B6909016780812159F
:1044930004909066780812156A9006D3E0240EF80B
:1044A300A3E03400F98882898378081215C5900641
:1044B300D3E02414F8A3E03400F9888289837413C9
:1044C300F09005997402F0024324C082C0839006E1
:1044D300E5E02407F5D99006D5E0C4333354C0F59D
:1044E300D978D3790688828983A3A3A3E0F5D988F1
:1044F300828983A3A882A983E864D97003E9640647
:1045030070E39006E5E0601F78D37906FAE8241398
:10451300F582E93400F583E0F5D988828983A3A87D
:1045230082A9831AEA70E6900705E02407F5D9907B
:1045330006D5E0C4333354C04404F5D978D379069F
:1045430088828983A3A3A3E0F5D988828983A3A85A
:1045530082A983E864D97003E9640670E3900705D0
:10456300E0601F78D37906FAE82433F582E9340052
:10457300F583E0F5D988828983A3A882A9831AEAFF
:1045830070E675E195900B367470F0A3740EF0A38A
:1045930074CCF0A3740FF0A374CCF0A3740FF0A346
:1045A30074CCF0A3740FF0A3746AF0A3740EF0A399
:1045B30074CCF0A3740FF0A37482F0A3740EF09084
:1045C3000B4474CCF0A3740FF0A374CCF0A3740F5A
:1045D300F0A374CCF0A3740FF0A374CCF0A3740F06
:1045E300F0A374CCF0A3740FF0A374CCF0A3740FF6
:1045F300F0908FF21215D49006D3E0240EF8A3E0C6
:104603003400F9888289831215E09006D3E02414DC
:10461300F8A3E03400F9888289837412F090059935
:104623007401024031C082C0839006E5E02407F59F
:10463300D99006D5E0C4333354C04402F5D978D3B6
:10464300790688828983A3A3A3E0F5D98882898325
:10465300A3A882A983E864D97003E9640670E39090
:1046630006E5E0601F78D37906FAE82413F582E9BA
:104673003400F583E0F5D988828983A3A882A983CE
:104683001AEA70E675E195900B36747CF0A3740E0C
:10469300F0A3747CF0A3740EF0A3747CF0A3740EE7
:1046A300F0A3747CF0A3740EF0A3747CF0A3740ED7
:1046B300F0A3747CF0A3740EF0A37482F0A3740EC1
:1046C300F0900B4474CCF0A3740FF0A374CCF0A35C
:1046D300740FF0A374CCF0A3740FF0A374CCF0A305
:1046E300740FF0A374CCF0A3740FF0A374CCF0A3F5
:1046F300740FF0908FF21215D49006D3E0240EF8C5
:10470300A3E03400F9888289831215E09006D3E090
:104713002414F8A3E03400F9888289837414F09098
:1047230005997404024031C082C0839006E5E024F9
:1047330007F5D99006D5E0C4333354C04406F5D900
:1047430078D3790688828983A3A3A3E0F5D98882E5
:104753008983A3A882A983E864D97003E9640670F6
:10476300E39006E5E0601F78D37906FAE82413F5B1
:1047730082E93400F583E0F5D988828983A3A8828E
:10478300A9831AEA70E6900705E02407F5D9900695
:10479300D5E0C4333354C04404F5D978D3790688BB
:1047A300828983A3A3A3E0F5D988828983A3A882FE
:1047B300A983E864D97003E9640670E3900705E010
:1047C300601F78D37906FAE82433F582E93400F5DB
:1047D30083E0F5D988828983A3A882A9831AEA7022
:1047E300E675E195900B367476F0A3740EF0A3741E
:1047F300CCF0A3740FF0A374CCF0A3740FF0A374E4
:10480300CCF0A3740FF0A374CCF0A3740FF0A374D3
:10481300CCF0A3740FF0A37482F0A3740EF0900B8A
:104823004474CCF0A3740FF0A374CCF0A3740FF012
:10483300A374CCF0A3740FF0A374CCF0A3740FF0A3
:10484300A374CCF0A3740FF0A374CCF0A3740FF093
:10485300908FF21215D49006D3E0240EF8A3E0341F
:1048630000F9888289831215E09006D3E02414F8B6
:10487300A3E03400F9888289837415F09005997454
:1048830003024031C082C0839006D3E0F8A3E0F571
:10489300838882A3A3A3A3A3A3E402402F74F712E4
:1048A300173D9005C4E075F0FFA4F8A9F074C6287D
:1048B300F8740539F9E82405FAE93400FB8A828B98
:1048C30083E0FCA3E0FD88828983A3A3A3A3A3A31E
:1048D300A3A3A3ECF0A3EDF088828983A3A3A3A3EE
:1048E300A3A3A3E024FFF8A3E034FFF98A828B8318
:1048F300E8F0A3E90249DB74F712173DEAFEEBFF88
:104903009061D0E060030249D775D90E75D903755C
:10491300D904EE248CF582EF3400F583E582240874
:10492300F8E5833400F9E0F5D9A3E865827003E97B
:10493300658370F2EE2484F582EF3400F583E5821B
:104943002404F8E5833400F9E0F5D9A3E86582701F
:1049530003E9658370F275E1957908EE248CFAEF2B
:104963003400FB120F787904EE2484FAEF3400FB51
:10497300120F787C00EEF8EFF9ECFAC3E49AFA959B
:10498300E0FBEE2AFAEF3BFBEA248BF582EB3400E3
:10499300F583E0C0E0E824ABF582E93400F583D089
:1049A300E0F00C88828983A3A882A983ECC39408CE
:1049B30040C7EE2470F582EF3400F583E0F8A3E0FE
:1049C300F9EE2472F582EF3400F583E8F0A3E9F001
:1049D3007901800279008001F07F0102180FC08203
:1049E300C08375D90275D90375D90575E195EA2494
:1049F30070F582EB3400F583E0F8A3E0F9EA247262
:104A0300F582EB3400F583E8F0A3E9F07901024085
:104A13003274F612173DEAFEEBFF9007277406F097
:104A230075082775090778081219507C0179031254
:104A33000FC074021216FC75D90675D90375822747
:104A4300758307E0F5D9A3E582642C7004E58364DC
:104A53000770F075E195900599E06408701EEE24E7
:104A630070F582EF3400F583E0F8A3E0F9EE2472E9
:104A7300F582EF3400F583E8F0A3E9F07901024B06
:104A83000274F612173DEAFEEBFF9061D0E0706608
:104A93007801900727740BF0900599E0640770196B
:104AA30075082775090778081219507C01790312D4
:104AB3000FC074021216FC7805740128F5D975D954
:104AC30003758227758307E8FAE0F5D9A31AEA701C
:104AD300F875E195EE2470F582EF3400F583E0F884
:104AE300A3E0F9EE2472F582EF3400F583E8F0A336
:104AF300E9F07901800279008005EDA2E092AF7FB1
:104B03000202180F74F712173DEAFEEBFF75D90383
:104B130075D90375D90DEE24DEF582EF3400F583E4
:104B2300E0F5D975E19579041210F2EE2470F5825F
:104B3300EF3400F583E0F8A3E0F9EE2472F582EF99
:104B43003400F583E8F0A3E9F079010249DC74F657
:104B530012173DEAFEEBFF9061D0E0F87480C39832
:104B6300FAEE2483F582EF3400F583E060047804E1
:104B730080027800E8240BF8EAC3985003024C162D
:104B83007D09900727EDF0EE24E3F8EF3400F97A7E
:104B9300287B077C0888828983E08A828B83F0885C
:104BA300828983A3A882A9838A828B83A3AA82ABE7
:104BB300831CEC70E0EE2483F582EF3400F583E090
:104BC300601D75082775090778081219507C097943
:104BD30003EEFAEFFB120FC074021216FC7D0D7484
:104BE300012DF5D975D9037582277583078D08E0E3
:104BF300F5D9A31508E50870F675E1957904121047
:104C0300F2EE241DF582EF3400F583E4F0A3F0798E
:104C13000180027900024B0274F612173DEAFEEBA3
:104C2300FF9061D0E0F87480C398FAEE2483F58294
:104C3300EF3400F583E06004780480027800E82410
:104C430008F8EAC3985003024D197C0690072774AD
:104C53000CF09005B5E0900728F07AB67B0578292B
:104C630079077D028A828B83E088828983F08A8236
:104C73008B83A3AA82AB8388828983A3A882A98317
:104C83001DED70E07AB87B057D028A828B83E08814
:104C9300828983F08A828B83A3AA82AB83888289E9
:104CA30083A3A882A9831DED70E0EE2483F582EF30
:104CB3003400F583E0601B7508277509077808122F
:104CC30019507903EEFAEFFB120FC074021216FCAF
:104CD3007C0A74012CF5D975D9037582277583076E
:104CE3008C08E0F5D9A31508E50870F675E1957908
:104CF300041210F2EE2470F582EF3400F583E0F82D
:104D0300A3E0F9EE2472F582EF3400F583E8F0A313
:104D1300E9F0790180027900024B0274F612173D23
:104D2300EAFEEBFF9061D0E0F87480C398FAEE24BA
:104D330083F582EF3400F583E06004780480027821
:104D430000E82404F8EAC3985003024DF87802906F
:104D53000727E8F0EE24F5F582EF3400F583E090C1
:104D63000728F0EE2483F582EF3400F583E0601B1F
:104D730075082775090778081219507C027903EE24
:104D8300FA120FC074021216FC7806740128F5D9C2
:104D930075D9037582277583078808E0F5D9A315AC
:104DA30008E50870F675E195EE2474F582EF34009A
:104DB300F583E4F0EE2480F582EF3400F583E4F02C
:104DC300EE241DF582EF3400F583E4F0A3F07904BB
:104DD3001210F2EE240DF582EF3400F583E0F8A310
:104DE300E0F9EE2472F582EF3400F583E8F0A3E9ED
:104DF300F0790180027900024B0274F612173D909C
:104E030061D0E0F87480C398FCEA2483F582EB3424
:104E130000F583E06004780480027800E82404F855
:104E2300ECC398405B79029007277407F0EA24F6F5
:104E3300F582EB3400F583E0900728F0EA2483F54C
:104E430082EB3400F583E06018750827750907784D
:104E5300081219507C0209120FC074021216FC7951
:104E630006740129F5D975D903758227758307E976
:104E7300F8E0F5D9A318E870F875E1957901800297
:104E83007900024B0274F612173DE9FCA2AFE4333A
:104E9300FDC2AF7E0080010EEA246FF582EB340081
:104EA300F583E0F8EEC398501A8E08EA2508F8EB6C
:104EB3003400F9E8246BF582E93400F583E06C7083
:104EC300D68024EA246FF8EB3400F9E0FEEA2EFAE8
:104ED300EB3400FBEA246BF582EB3400F583ECF052
:104EE30088828983E004F0024AFD74F612173DA21A
:104EF300AFE433FDC2AFEA246FF582EB3400F583F0
:104F0300E014F07C0060368C08EA2508F8EB3400E6
:104F1300F9E8246CF582E93400F583E0C0E0E82485
:104F23006BF582E93400F583D0E0F00CEA246FF5E9
:104F330082EB3400F583E0F8ECC39840CAEA246EB0
:104F4300F582EB3400F58374FFF0EA246AF582EB13
:104F53003400F583E4F0024AFDC082C083E5A8F87B
:104F6300C2AFEA246BF582EB3400F583E9F0EA245F
:104F73006AF582EB3400F583E4F0E8A2E792AF022E
:104F8300403274F212173DEAFEEBFFECFAEDFB8AB6
:104F9300828B83A3A3A3A3E0541FF0EE2436F582F0
:104FA300EF3400F583E4F0F9EEFCEFFD8A828B83A6
:104FB300E0C0E0EC245DF582ED3400F583D0E0F051
:104FC300750A00E933333354F8F50B8A828B83E097
:104FD300F508750900E50A78081216B4E508A2E099
:104FE3005034EE2436F508EF3400F509850882F5D0
:104FF30083E0F50CEE250CF50CEF3400F50DE50C14
:105003002438F582E50D3400F583E50BF08508823D
:10501300850983E004F0050A050BE50AC3940840FB
:10502300AA098A828B83A3AA82AB838C828D83A3F2
:10503300AC82AD83E9C394055003024FAF7F0602F0
:10504300180F74F712173D9005C2E0640170077AD8
:10505300007B000251B67E009005C8E070F1740138
:10506300F0A3E4F0A3F090062804F090062BE4F0FC
:10507300A3F090062E04F09005CBE4F0A3F0A3F088
:10508300A3F09005FBF09090461215D49005DE1224
:1050930015E09005E2E4F0A3F0A3F0900646F0904B
:1050A300063AF090062F7480F0A3E4F0900635F0F2
:1050B30090062DF09006B1F0A3F0A3F0A3F0A3F0B7
:1050C300A3F0A3F0A3F09006BAF0900649F090067F
:1050D30099F0A3F09090461215D490069B1215E018
:1050E3009090461215D490069F1215E09006A5E401
:1050F300F09006A7F09006A3F09006BDF0A3F0A3EE
:10510300F0A3F0A3F0A3F0A3F0A3F078C27905E82D
:10511300246FF582E93400F58374FFF00E888289E9
:1051230083A3A882A983EEC3940440E37AC27B05D8
:1051330078CC790688828983E0C0E0EA2461F5822D
:10514300EB3400F583D0E0F088828983A3A882A999
:10515300838A828B83A3AA82AB83E864D17003E939
:10516300640670D07AC27B0578AB7905888289831F
:10517300A3E0C0E0EA24E7F582EB3400F583D0E056
:10518300F088828983A3A882A9838A828B83A3AAB6
:1051930082AB83E864B37003E9640570CF9005C202
:1051A300E004F0640170089005CAE09005C4F07A49
:1051B300C67B050249DCC082C0839005C9E4F09038
:1051C30005C8F09005C2F0A3F0A374FFF075E1F1F8
:1051D300024032C082C083780079009005C9E06044
:1051E3000478C6790588828983A3A3A3A3E0F9027F
:1051F300403274F412173DEAFEEBFF89088E828F6A
:1052030083A3A3A3E0600F8E828F83A3A3A3E4F001
:105213009005C3E014F09005C2E014F07006900509
:10522300C474FFF08E828F83A3A3E4F09006D1E0D1
:10523300700D9005C3E06401700579001210D4EE7F
:105243002465F582EF3400F583E0F8A3E0F9E8493B
:105253006028EE2465F50AEF3400F50B850A82F524
:1052630083E0FCA3E0FD9005C4E0FA7B00120BB2DF
:10527300850A82850B83E4F0A3F0A9088E828F83CD
:10528300A3A3A3A3E0FA7B00120BE8EEFAEFFB1251
:105293000FF0120FD8024324C082C08378AB790584
:1052A30088828983A3E4F088828983A3A882A9835F
:1052B300E864B37003E9640570E69005AC02462325
:1052C30074F612173DEAFEEBFFEC2403F8ED34000D
:1052D300F988088909EC2407F8ED3400F9E8FCE9BA
:1052E300FD8C828D83E0F8A3E0F98508828509832C
:1052F300E0FAA3E0FB12165BEE240DF582EF340017
:10530300F583E8F0A3E9F08C828D83E0F8A3E0F95C
:10531300850882850983E0FAA3E0FB12165B8B09FB
:10532300EA45096013EE240DF582EF3400F583E0BE
:105333002401F0A3E03400F0024B0274F612173D8F
:10534300EAFEEBFFEE242EF582EF3400F583E0FC5A
:10535300A3E0FD780079FAECFAEDFB12165BEE247C
:1053630070F582EF3400F583E8F0A3E9F078007973
:10537300FAECFAEDFB12165B8B09EA45096013EEB2
:105383002470F582EF3400F583E02401F0A3E034C8
:1053930000F0024B0274F012173DEAFEEBFF7410AB
:1053A300121731780C1215B61210808A088B098CEB
:1053B3000A8D0B9090627808121504909066780815
:1053C30012156A780812194C8E828F83E0F8A3E0D5
:1053D300F5838882A3A31215D412222E7404121605
:1053E300FCE960030254E58E828F83E02402F8A374
:1053F300E03400F9E8FAE9FB8A828B83780C121512
:105403001790906678081215B68A828B83780812F3
:10541300157DEE240BF582EF3400F583C082C08343
:105423008E828F83A3A3A3A3A3E02401F8A3E03474
:1054330000F9D083D082E0687003A3E06970057936
:10544300010254E78E828F83A3A3A3A3A3A3A3E0A4
:105453002401F0A3E03400F0EE2474F582EF34006D
:10546300F583E064017036EE2475F582EF3400F5C0
:1054730083E0F8A3E0F98E828F83A3A3A3A3A3A35E
:10548300A3E0687003A3E0697013EE2475F582EF5F
:105493003400F583E02401F0A3E03400F0EE24802F
:1054A300F582EF3400F583E064017036EE2481F574
:1054B30082EF3400F583E0F8A3E0F98E828F83A3B3
:1054C300A3A3A3A3A3A3E0687003A3E0697013EEEF
:1054D3002481F582EF3400F583E02401F0A3E03466
:1054E30000F0790002426674F712173D9005C4E09C
:1054F30075F0FFA4F8A9F074C628FE740539FF807F
:1055030028EE2465F8EF3400F988828983E0FCA350
:10551300E0FD88828983E4F0A3F08E828F83A3A3C6
:10552300A3A3E0FA7B00120BB2EE2465F582EF34FD
:1055330000F583E0F8A3E0F9E849603CEE2464F564
:1055430082EF3400F583E0F5087808121954EE244D
:1055530063F582EF3400F583E0F9EE2465F582EF1D
:105563003400F583E0FCA3E0FDEEFAEFFB120F6CD1
:1055730074011216FCE960890249DC74F212173DCA
:105583008A0C8B0DE9FE740E121731E0FAE50C2438
:1055930062F582EB3400F583E06401600302564553
:1055A3009061D0E0F87480C398F508E50C2483F586
:1055B30082EB3400F583E06004780480027800E92C
:1055C30028F8E43400F9E824020808E93400F9E58E
:1055D3000898E499A2D265D0334063EA70047F024D
:1055E30080027F01E060398E08750900780812197E
:1055F300507A277B07120FA274021216FC75082734
:105603007509077808121950EEFCEFF9AA0CAB0DD7
:10561300120FC074021216FC74042EFE7C277D0741
:1056230074012EF5D98FD9EE600D8C828D83F8E04D
:10563300F5D9A318E870F875E19579008006790724
:10564300800279FF025040C082C083E960208C82CF
:105653008D83E08A828B83F08C828D83A3AC82ADB1
:10566300838A828B83A3AA82AB8319E970E0ECFA65
:10567300EDFB02403274F012173D74FF1216E690F0
:1056830005C4E0F470030259B0E075F0FFA4F8A973
:10569300F074C628FE740539FF8E828F83A3A3A3FB
:1056A300A3A3A3A3E0F8A3E0F98E828F83A3A3A30C
:1056B300A3A3E8F0A3E9F0906054E090059FF09075
:1056C3006055E09005A0F0906056E09005A1F09041
:1056D3006057E09005A2F0906058E09005A3F09029
:1056E3006059E09005A4F090605AE09005A5F09011
:1056F300605BE09005A6F090605CE0F50C9005A778
:10570300F090605DE0FC9005A8F090605EE0FD9095
:1057130005A9F090605FE0FB9005AAF0EE24FBF58D
:1057230082EF3400F583E02401F0A3E03400F0902D
:1057330005A5E0FA850C0A250AF8E43400F98D087A
:10574300E82508F8E93400F98C08E82508F8E93475
:1057530000F98B08E82508F8E93400F9EE24F7F599
:1057630082EF3400F583E028F0A3E039F0EE24F96A
:10577300F582EF3400F583E0250CF0A3E03400F06C
:10578300EA700E9005A8E07008A3E07004A3E0603F
:105793006C8E828F83A3A3A3A3A3E0F8A3E0F9EE07
:1057A300240DF582EF3400F583E028F8A3E039F9FE
:1057B300EE240BF582EF3400F583E8F0A3E9F0EE75
:1057C300240FF582EF3400F583E4F0EE241CF58218
:1057D300EF3400F583E064016003025888EE24206F
:1057E300F582EF3400F583E0F8A3E0F9EE241DF52C
:1057F30082EF3400F583E8F0A3E9025887EE240B27
:10580300F582EF3400F583E0F8A3E0F98E828F830D
:10581300A3A3A3A3A3E0687003A3E06970228E820D
:105823008F83A3A3A3A3A3E064057002A3E0700C7A
:10583300793EEEFAEFFB120F480259B0790880F275
:105843009005A7E0601EEE240FF582EF3400F58388
:10585300E4F0EE241CF582EF3400F583E06401707C
:10586300240257E0EE24FDF582EF3400F583E024B3
:1058730001F0A3E03400F0EE241DF582EF3400F5CF
:1058830083E4F0A3F09005A0E06052EE241CF582BF
:10589300EF3400F5837401F0EE246AF582EF3400EF
:1058A300F583E07038EE2474F582EF3400F583E07D
:1058B300702BEE2480F582EF3400F583E0701EEE4A
:1058C3002420F582EF3400F583E0F8A3E0F9EE2419
:1058D3001DF582EF3400F583E8F0A3E9F0906062F0
:1058E300E08E828F83602BE0F8A3E0F9E82406FCC6
:1058F300E93400FDE82402FAE93400FB12107A8E41
:10590300828F83E02412F8A3E03400F9888289832C
:10591300801CE0F8A3E0F5838882A3A3A3A3A3A339
:10592300E4F0A3F0EE241DF582EF3400F583E4F0F8
:10593300A3F0906060E0C0E0EE2469F582EF3400EC
:10594300F583D0E0F09005A5E0F8EE2467F582EF4B
:105953003400F583E028025A89EE2483F582EF347C
:1059630000F583E06004780480027800E50AC398B8
:10597300F9120BA68A0E8B0FEA450F7038121146E7
:10598300EE2467F582EF3400F583E07006906060E3
:105993007480F0EEFAEFFB121032E96401600E122C
:1059A3000F6612102CE964016003120FD874011200
:1059B30016FC025FE1EE2483F582EF3400F583E009
:1059C30070048A088B09E50A6022A808A9098510D2
:1059D30082851183F0E5D988828983F0A3A882A9FF
:1059E30083851082851183E014F070E9EE2483F53A
:1059F30082EF3400F583E0602174FC250AF50A7810
:105A030008121950AC0AA90BEEFAEFFB120FC67479
:105A1300021216FCE97003025AC97403650B700382
:105A2300025ACE850A0C750D00780C121950AC0879
:105A3300AD09AA0EAB0F120FA274021216FCEE24CC
:105A430069F582EF3400F583E064807004747F802D
:105A530001E0F5087808121954E50BF508780812E7
:105A63001954A90AAC0EAD0F9005C4E0FA7B0012DD
:105A73000BAC74021216FC121152EE2467F582EF7E
:105A83003400F583E014F0E07003025990750827A1
:105A9300750907750E00750F00E5D914F50AE5D9E8
:105AA3005403F50B60207403650B70030259C9E5B9
:105AB3000A700302595CEE2468F582EF3400F58323
:105AC300E0600302595C793D0258358508828509F7
:105AD30083E0F8A3858208858309603B1470030281
:105AE3005CCB147003025FBF147003025D2924FDB5
:105AF3007003025E49147003025A7A147003025E43
:105B03009F24FE7003025E58147003025E9A1470A1
:105B130003025F34025F43E0C0E0EE2477F582EFD7
:105B23003400F583D0E0F0850882850983A385825C
:105B3300088583097902AC08AD09EE2478FAEF34BD
