:1000000002040D7B017A007990120DB9900090E006
:10001000243D601824EF601414601124FD600D2449
:10002000267001229000F87402F0F17D22E0900029
:1000300097F07F0122F1D6113E7402F0E17D514527
:100040009000F822F1D6113E7405F0E17D32F1D630
:060050004145F1D64145D7
:0B005B0080F053B3FEE490000EF02292
:10006B0002081FBB010689828A83E0225002E72225
:10007B00BBFE02E32289828A83E49322BB010CE557
:10008B008229F582E5833AF583E0225006E9258241
:10009B00F8E622BBFE06E92582F8E222E58229F585
:1000AB0082E5833AF583E49322BB010689828A8336
:1000BB00F0225002F722BBFE01F322F8BB010DE543
:1000CB008229F582E5833AF583E8F0225006E9258B
:1000DB0082C8F622BBFE05E92582C8F222C5F0F8DC
:1000EB00A3E028F0C5F0F8E582158270021583E0D5
:1000FB0038F022BB010A89828A83E0F5F0A3E02263
:10010B00500687F009E71922BBFE07E3F5F009E378
:10011B00192289828A83E493F5F074019322BB013F
:10012B0010E58229F582E5833AF583E0F5F0A3E04B
:10013B00225009E92582F886F008E622BBFE0AE97F
:10014B002582F8E2F5F008E222E5832AF583E993AC
:10015B00F5F0A3E99322BB010A89828A83F0E5F0CB
:10016B00A3F0225006F709A7F01922BBFE06F3E510
:10017B00F009F31922F8BB0111E58229F582E58319
:10018B003AF583E8F0E5F0A3F0225009E92582C89F
:10019B00F608A6F022BBFE09E92582C8F2E5F008B5
:1001AB00F222EF4BFFEE4AFEED49FDEC48FC22BB81
:1001BB00010789828A830202185005E9F80203C1FC
:1001CB00BBFE05E9F80203CD89828A830203D9BB02
:1001DB00010789828A830202245005E9F80203E9A8
:1001EB00BBFE05E9F80203F522BB010DE58229F5FB
:1001FB0082E5833AF5830202245007E92582F8024F
:10020B0003E9BBFE07E92582F80203F522E0FCA314
:10021B00E0FDA3E0FEA3E0FF22ECF0A3EDF0A3EEE4
:10022B00F0A3EFF022A42582F582E5F03583F58368
:10023B0022E0FBA3E0FAA3E0F922EBF0A3EAF0A3A0
:10024B00E9F022D083D082F8E4937012740193709A
:10025B000DA3A393F8740193F5828883E47374025E
:10026B00936860EFA3A3A380DFE5092582F582E500
:10027B00083583F583B508048582092210AF0685FE
:10028B008209F50822858209F508D2AF22E50925F6
:10029B0082F582E5083583F58322E849701C8FE9E6
:1002AB008EEA8DEB8CEC8BED8AEE120402AFE9AE8D
:1002BB00EAADEBACECABEDAAEE228BE98AEA89EB6B
:1002CB0088EC75EF00E8CCF812040485EB8285EC22
:1002DB008385EFF08FE98EEA8DEB88EC8582ED85D7
:1002EB0083EE00000000000053F01F7410C395F064
:1002FB004420F5EF120405EECAFEE985E98285EA92
:10030B00838582E9F5ED8583EA8CEE120407CDCF68
:10031B00CBCFC395E9C895EA8582E98FED8583EA52
:10032B008EEE120407F992F0C3EB95E9FBEA95EA1E
:10033B00FAE895EBC995ECF872F050151582E58249
:10034B00B4FF021583EF2BFBEE3AFAED39F9EC38DB
:10035B00F8AF82AE83E4FDFC228DE98BED8CEA8A4B
:10036B00EE120408ADE9ACEAE5EBE5EC8FE989EDBB
:10037B008EEA88EE120408E5E92DFDE5EA3CFCE582
:10038B00EBE5EC8FE98BED8EEA8AEE120408AFE910
:10039B00AEEAE5EB2DFDE5EC3CFC22E860178FE9BE
:1003AB008EEA8DEB8CEC541FF5EF120401AFE9AE26
:1003BB00EAADEBACEC22E6FC08E6FD08E6FE08E64F
:1003CB00FF22E2FC08E2FD08E2FE08E2FF22E493D2
:1003DB00FC740193FD740293FE740393FF22ECF6FD
:1003EB0008EDF608EEF608EFF622ECF208EDF2084F
:1003FB00EEF208EFF2220000000000000000000007
:10040B000022787FE4F6D8FD750804750900758124
:10041B000902045A02074CE493A3F8E493A34003A4
:10042B00F68001F208DFF48029E493A3F854072443
:10043B000CC8C333C4540F4420C8834004F4568003
:10044B000146F6DFE4800B01020408102040809087
:10045B00049FE47E019360BCA3FF543F30E5095435
:10046B001FFEE493A360010ECF54C025E060A840AB
:10047B00B8E493A3FAE493A3F8E493A3C8C582C8A2
:10048B00CAC583CAF0A3C8C582C8CAC583CADFE977
:10049B00DEE780BE43000B01008043010E010080AC
:1004AB00410111005400F94A6F686E20446F6500DA
:1004BB0000000000000000000000004100F70843AE
:1004CB0000080100804100030043006101008041EE
:1004DB00004D01410051004100140048003E000056
:1004EB000000000000004100110041000E00000060
:1004FB00070600000302406C000000000000000033
:10050B0000000000000000000000000000000000E0
:10051B00001F061000000000000000010001000693
:10052B000000060001D000000000000000000000E9
:10053B0000001F06101C010200000000000000005C
:10054B00000000000000000040200000001003909D
:10055B000114001F06103802FF02580005000000AE
:10056B00000000000400000000000000000100007B
:10057B000000000005061054000100000000000000
:10058B000000000000000000000000000000000060
:10059B0000000000001F06200004040202000128D6
:1005AB0000010018040405050002280301020300E2
:1005BB00002A040414001F06201C0B00032A000150
:1005CB004B6579666F6264656D6F76636F6D000066
:1005DB00000000000404001F062038050500042855
:1005EB000301020500012A0604030200052A01018A
:1005FB0000000404050500001F0620540628030113
:10060B00020700042A0604090800072A0401300027
:10061B0050000000C8000404001F062070020200F6
:10062B00082800010118040410100009280001B863
:10063B00D02D816329EF968A4D001F06208C55B370
:10064B000100B25A04041313000A280301020B0021
:10065B00B8D02D816329EF968A4D001F0620A8552F
:10066B00B30200B25A04041400000B000202000093
:10067B000000000000000000000000000B0620C47A
:10068B00000000000000000000000000000000005F
:10069B00000000000000000000000000000D0640FC
:1006AB0000000202008004000B00000000000000AC
:1006BB000000000000000000000000000000130616
:1006CB005000B8D02D816329EF968A4D55B30000A9
:1006DB00B25A0000000000000000000000000006FD
:1006EB000660000000000000000000000000000099
:1006FB0000000000000000000000000000000000EF
:10070B001906700019020000000000000000000034
:10071B0000000000000000000000000000000000CE
:10072B00000606F000038EFC000000000000000035
:10073B0000000000000000000000000000000000AE
:10074B0000E4FEF1F9E49000F8F012180F20920388
:10075B000E8005121AA3AE07D2AFEE60089000F818
:10076B007401F0F17DE4900002F0121959121AE1B4
:10077B0080F89000F8E024FE601724FE60261460D9
:10078B00311460352405704290010D7404F0021091
:10079B006690010D7402F012161EEF602D90010D84
:1007AB007403F0227B017A0079F99000F7112D0286
:1007BB0018BA90010D7405F022C290C2917F0A7E87
:1007CB0000121A6E9000F87401F0229000905145BF
:1007DB007B007A00790090009022F1D6113EE02444
:1007EB00FD600280089000F87404F0F17D2275AD75
:1007FB00011219305394FEE4F59F5394FD759F013C
:10080B00439404759F12C290C29175AE0475CF408C
:10081B0075CE0422C0E0C083C08212005DD082D0AE
:10082B0083D0E03290010DE0FF9000F8F0BF03079A
:10083B0090010D7403F02202077D900068120245AF
:10084B0090006B7415F0E4A3F0900012E070099027
:10085B00004D04F090006CF0121B33900068D1AB8C
:10086B00120087FF90006DF0E490008EF0EFD394B0
:10087B0000500281A0B1A7121689FF90006EF09074
:10088B00006812023C900048120245EF12024E091A
:10089B0090810BFA820B808308CB840B29850A7C11
:1008AB00860B608709FF880AFC890AD08A0C1A8B91
:1008BB0009CF8C0BA58D0C748E0C548F00000C94EF
:1008CB0090004D7401F090006CF0A3E0C3940350C2
:1008DB000790005074D88199B1A1C003C002C00128
:1008EB00B19A900115120245D001D002D00312111A
:1008FB006690006B7404F0900070E0FF60619000F4
:10090B006FE0FE64056058EFB4010D900010E064D9
:10091B0003604C7401F08047900070E0FFB4020D4F
:10092B00900010E0640360377402F08032EEB41470
:10093B0003121B7A90006FE0B41F09E490004EF095
:10094B00900046F090005074B2F090006B7413124C
:10095B001B8EA3EFF0900010E0B401037403F09032
:10096B00006FE0FFB4090690006B7403F090006019
:10097B00E0FE6F700281A090004FEE121B8E900074
:10098B005074D58199B1A1C003C002C001B19A9036
:10099B000138120245D001D002D003121535B19A9D
:1009AB0012191790006BEFF0900071E0900047F078
:1009BB0090004BF090006FE06402600281A0900009
:1009CB0010F081A0B1A1C003C002C001B19A900187
:1009DB002A120245D001D002D00312169590008E38
:1009EB00EFF0B1AFB50705E490004EF090006B74DB
:1009FB0005F081A0B1A1C003C002C001B19A900162
:100A0B003E120245D001D002D0031215ACE4900087
:100A1B008FF090008FE0FF246FF582E43400F583B4
:100A2B00E0FE74362FF582E43400F583EEF090008F
:100A3B008FE0FF2477F582E43400F583E0FE121893
:100A4B007FEEF1CCE0B408CA90004CE06008121BBA
:100A5B00846003121B70900046E0600D121B8470C3
:100A6B0008900046F090004EF090006B7406F081F9
:100A7B00A0B1A1C003C002C001B19A9001441202FF
:100A8B0045D001D002D0031215F5E490008FF09001
:100A9B00008FE0FFC394085008121873E4F1CC8068
:100AAB00EEF1D490006FE0FF64936009EFB4030D97
:100ABB00A3E0B43C0890006B7407F081A090006B2E
:100ACB007408F081A0B1A1C003C002C001B19A901B
:100ADB000150120245D001D002D003121729900009
:100AEB006FE0FF900047E02FF090006B7409F081EE
:100AFB00A0B1A1C003C002C001B19A90015C120267
:100B0B0045D001D002D00312138890006F121B47FF
:100B1B00900071121B3A90006B740AF081A0B1A186
:100B2B00C003C002C001B19A900156120245D00118
:100B3B00D002D003121400900076121B479000785D
:100B4B00121B3A121B7AF0900013F090006B740B8F
:100B5B00F0F1D481A0B1A1C003C002C001B19A9041
:100B6B000093120245D001D002D003F1DD90006B4F
:100B7B00740CF081A0B1A1C003C002C001B19A9066
:100B8B000093120245D001D002D003F14090008EA9
:100B9B00EFF090006B740DF081A0B1A1C003C00207
:100BAB00C001B19A900131120245D001D002D0039D
:100BBB00121576B1AFFEB50705121B70800C9000B5
:100BCB0014E0B50605E4900013F0900070E0649219
:100BDB006015900047E004F090004BE0FF90004759
:100BEB00E0D39F4002EFF090006B740EF081A0B148
:100BFB00A1C003C002C001B19A900093120245D06C
:100C0B0001D002D003F19290006B7412F081A0B16D
:100C1B00A1C003C002C001B19A90014A120245D093
:100C2B0001D002D00312171CB1AFFEB50707E49039
:100C3B00004EF0800C900014E0B50605E490001314
:100C4B00F090006B740FF0804CB1A1C003C002C0D8
:100C5B0001B19A900093120245D001D002D003F15A
:100C6B00E690006B7410F0802CB1A1C003C002C0E1
:100C7B0001B19A900093120245D001D002D003F13A
:100C8B00EF90006B7411F0800C90005074D4F090C6
:100C9B00006B7413F090006CE06002112F90006BEE
:100CAB00E012024E0CF2000CFB010D04020D0D03C1
:100CBB000D16040D1F050D25060D2E070D37080DFE
:100CCB0040090D490A0D520B0D5B0C0D640D0D699E
:100CDB000E0D720F0D7B100D84110D8D120D9613D1
:100CEB000D961400000D997B017A00796D02003589
:100CFB007B017A00796D02004E7B017A00796D02DF
:100D0B0007E57B017A00796D0217DE7B017A0079AA
:100D1B006D021104121B5C0217007B017A00796DC6
:100D2B000200527B017A00796D0217807B017A00F9
:100D3B00796D0217AA7B017A00796D0217D87B01B6
:100D4B007A00796D0200447B017A00796D02100DF7
:100D5B007B017A00796D021795121B5CE1F87B0120
:100D6B007A00796D0217087B017A00796D0217C63C
:100D7B007B017A00796D0217CC7B017A00796D02C9
:100D8B0017D27B017A00796D0217E4120003227BE4
:100D9B00017A00796F2290004812023CE92401F994
:100DAB00E43AFA22900051E0FF90006FE0229000AD
:100DBB0093120245900050E01200B4900050E024D2
:100DCB002C602914601524FD602F242670399000A7
:100DDB004FE0D1A4D1B2900053800B900052E0D1E0
:100DEB00A4D1B290004FE09000028018B1A1900006
:100DFB0001D1A1900001EF800B900048D1ABD1A1A4
:100E0B00900001EF1200C622900090120245900054
:100E1B009012023C900002120087FF900093120286
:100E2B003CEF1200B490009012023C9000031200B1
:100E3B0087FF90009312023C900001EF1200C690C6
:100E4B00009012023C900004120087FF9000931256
:100E5B00023C900002EF1200C690009012023C90F0
:100E6B000005120087FF90009312023C900003EFE5
:100E7B001200C690009012023C900006120087FFF1
:100E8B0090009312023C900004EF1200C690009069
:100E9B0012023C900007120087FF90009302023C65
:100EAB0012023C90000122900001EF0200C690005C
:100EBB00AD1202459000B3E024021200B49000ADD5
:100ECB00D1AB740D1200C69000B0121AFA9000AD9F
:100EDB0012115FEF1200C69000B3F1C19000B0B1D8
:100EEB00A4F1B09000AD1216E0E43AFAF1B0F1B90A
:100EFB00FF60357E0024FFFDEE34FFFC90000312F3
:100F0B00029812023C8D828C83120087FDEF24FF26
:100F1B00FFEE34FFFEF13912023C8F828E83ED120D
:100F2B0000C6F1B914F080C6900007020274850860
:100F3B00838509822290009012168F24FD900096D3
:100F4B00F0121570FED1A51216D1D1A5C003C002A7
:100F5B00C0011200FEFF90009012115F1214E1D03D
:100F6B0001D002D003E5F08FF0120161900096F1F1
:100F7B00C190009012137DF1B090009312135AD1CF
:100F8B00F7900096E0FF2212006E14FF900096F08F
:100F9B00F1C312135DF1B0D1A580E4E0FF90FFFF28
:100FAB00120274EFF090FFFD1202740202459000E2
:100FBB0006120298E022E0FF90FFFF120274EFF09E
:100FCB0022F090008FE004F02290004BE09000475D
:100FDB00F022D113900005EF0200C6900002D1A1C0
:100FEB00EF0200B4D113900005EF0200C61207D632
:100FFB00120245E4FD9000F87402F090010DF0022E
:10100B00077D1207D6120245900111E0700204F021
:10101B00D291E4FF90004DE06016115DF162114139
:10102B00EF700790004D04F080069000607413F091
:10103B0022E4900012F07A0019804AE4FF90004DF0
:10104B00E0600E115DF144113CEF700590004D0412
:10105B00F022E4F07B017A00791622E4FF90004D38
:10106B00E06016115DF1531141EF700790004D04D4
:10107B00F080069000607405F022E4900012F07B83
:10108B00017A007915D189FF9000D5E0703AEFD342
:10109B00941F40037F0022A2AFE4339000ADF0C257
:1010AB00AFEF04120FC2120DA7120FB07B017A0023
:1010BB0079D7120EF79000D57401F09000ADE06077
:1010CB0002D2AFC2827F01227F0022D1CA6027E405
:1010DB00F0900090F1360B7A007990900097D1D870
:1010EB00311C118AAB07EB700790004D04F08006A2
:1010FB00900060740FF0AF0322B1EFB40D127D5866
:10110B007C027F1E7E0011D6D29090010D7405F0EB
:10111B002290009412024590009412023C74051226
:10112B0000B4900094120EAB740F1200C69000978F
:10113B00F110900094F1713159B1E7900094D1E81E
:10114B003159120129FF900094D1F00200C6120010
:10115B00C690009712023C900002229001121202DC
:10116B0045900112315F120087FF90011512023C6E
:10117B00EF1200B47151B170FF900115120EABEF6D
:10118B001200C612006E24F97002611C24FD70025D
:10119B0041A814700241EC14700241D82403600280
:1011AB00614D7157900118714E7168FF9001189144
:1011BB00F890011812023CC003C002C0011200FEDD
:1011CB00FD7151B12BEDD001D002D003CF8FF012B6
:1011DB000161715190000691F0315FEF1200C67101
:1011EB005190000791F0D1F81200C6715190000890
:1011FB00716E90011812023C9000041201F4718080
:10120B00C003C002C0011201BAC004C005C006C0B1
:10121B00077151900009716E7808B101D007D006A3
:10122B00D005D0041201ADD001D002D0037177C02C
:10123B0003C002C0011201BAC004C005C006C0073A
:10124B00715190000A716E7810B101D007D006D0A1
:10125B0005D0041201ADD001D002D0037177C003C9
:10126B00C002C0011201BAC004C005C006C007719C
:10127B005190000B716E7818B101D007D006D005D4
:10128B00D0041201ADD001D002D0031201DA71519A
:10129B0090000C91F012023C900008802C7157903A
:1012AB00011BB1227406F071517180120FB09001C5
:1012BB001B12023C120EF7715190000A120087FFAD
:1012CB0090011B12023C900006EF0200C671579072
:1012DB00011E714E7168FF90011E91F890011E80E6
:1012EB00127157900121714E7168FF90012191F895
:1012FB0090012112023CC003C002C0011200FEFD8E
:10130B007151B12BEDD001D002D003CF8FF0020180
:10131B00617157900124714E7168FF900124120284
:10132B003CEF1200B4715112006E24FD120FC2E992
:10133B002405F9E43AFA120FB0900124120DA4120D
:10134B000EF72212024590011202023C9001151277
:10135B00023CE92402F9E43AFA2212023C9000041E
:10136B00020087120087FFE4FCFDFE221201DA90D7
:10137B00011812023CE92404F9E43AFA22900159CB
:10138B00120245900159B16D91E9D1D191EAC00397
:10139B00C002C001B11A315F91E1D001D002D0037C
:1013AB00B10D900005120087FE90015C315F91DA60
:1013BB00715DC003C002C001B11A7165FDEF4DFF35
:1013CB00D001D002D003B10D90000712008791E934
:1013DB0090000491DA7180C003C002C0011200FEBC
:1013EB00FFB11490000691E1D001D002D003E5F0DB
:1013FB008FF0020161900153120245900153315F4E
:10140B0091D0EF1200B4B1257406F091CAE9240310
:10141B00F9E43AFA120FB0900156120DA4120EF71E
:10142B0091CA90000A120087FE91D490000791DABE
:10143B00E92407F9E43AFAC003C002C0011200FE26
:10144B00FF91CA90000991E1D001D002D00391C362
:10145B0090000C120087FE91D490000991DAE924D8
:10146B0009F9E43AFAC003C002C0011200FEFF9171
:10147B00CA90000B91E1D001D002D00391C3900030
:10148B000E120087FE91D490000B91DAE9240BF930
:10149B00E43AFAC003C002C0011200FEFF91CA90E9
:1014AB00000D91E1D001D002D00391C390000F91B8
:1014BB00D090000DEF0200C6E5F08FF012016190A5
:1014CB00015302023C120087FF90015602023CEED0
:1014DB0075F000020180120087FDEF4DFF22FE9098
:1014EB00015C02023C120087FF9001182212023CA1
:1014FB00E48FF00201611203A6A804A905AA06ABAA
:10150B000722E5F08FF012016190015902023C12A3
:10151B0000FEFF9001592212024590FFFF02027458
:10152B0090000512008745F0FF229001351202450D
:10153B00900135315F120087FF90013812023CEFAA
:10154B001200B4900135B16DFF900138120EABEF64
:10155B001200C69001357165FF900138315FEF02C3
:10156B0000C612023C90000302008790012ED18F1F
:10157B0024FD900134B1EEFF90013112023CEF12C9
:10158B0000B490012EB16DFF900131120EABEF1232
:10159B0000C690012E7165FF900131315FEF0200A3
:1015AB00C690013BB1227408F0715D120FB090012F
:1015BB003E12023C120EF7B1257408F090013B125B
:1015CB00023CE9240AF9E43AFA120FB090013E12F8
:1015DB00023CE92408F9E43AFA020EF7120129E574
:1015EB00F0FF22F0900002020087900141120245A9
:1015FB00900141315F120087FF90014412023CEFD2
:10160B001200B4900141B16DFF900144120EABEF8B
:10161B000200C690004DE0605A900011E0700590FA
:10162B00001004F0900010E0B4030C900011741241
:10163B00F012082F7F0122E490004DF0D181A424F9
:10164B00FAF9740435F0FA7BFF1190EF601FD1812A
:10165B009004FC120230E493900060F0900011E0D3
:10166B0004F0E0C39412400BE4F07F012290004D94
:10167B007401F07F0022900011E075F021229000A0
:10168B000102008712024502006E900127D18F24C0
:10169B00FEFF90012DB1EEFE90012A12023CEE12DC
:1016AB0000B4120FC3900127D1E0E43AFA120FB045
:1016BB0090012A120DA4120EF790012DE0FF22E4E7
:1016CB00FB90004DE022EE75F00002016112024525
:1016DB007A0079162212023CE92403F92212023C09
:1016EB00900005EF2212023C900004EF2212023C04
:1016FB00900003EF22715D900090020245715D90A6
:10170B00009002024512023C1200FEFDACF0ECFF11
:10171B0022B1EFFF90014A12023CEF0200B4B1EF8D
:10172B00FF90015012023CEF0200B4EEF0A3EFF079
:10173B00AF05A3ECF0A3EFF02274011200B4F58215
:10174B0075830074040200C674011200B4F582752F
:10175B00830074050200C674011200B4F582758310
:10176B000074130200C612023C900003EF1200C675
:10177B00900002ED2290009012003E7406F0900152
:10178B000DF011461207DB020245715D12006E70FF
:10179B000D9000F87405F090010DF012077D227189
:1017AB005D900090120245E4900111F09000F874E6
:1017BB0004F090010DF0C29102077D1207D60202D0
:1017CB00451207D60202451207D60202451207D66A
:1017DB000202451207D60202451207D60202451233
:1017EB001B1F8005C333CE33CED8F9FF74362DF5CE
:1017FB0082E43400110660027F0122F583E0FDEFE5
:10180B005D7F0022119BE4FF1173E4F0743E2F11F6
:10181B008AE4F00FEFB408F09000477401F09000E9
:10182B004BF01192E4A3F0900013F090004CF09069
:10183B000046F090006074FFF0900052F090004F63
:10184B00F0E4900056F0A3F0900054F0A3F0900059
:10185B0051F0900014F090005074C3F07B007A00AC
:10186B00790090004802024574362FF582E434006B
:10187B00F583E4F074582FF582E43400F58322F5F8
:10188B0082E43400F58322900012F090004DF02298
:10189B00E49000B5F075FC1853FCFED2BBD2BDD260
:1018AB008843A610D2829000D5F09000D7F022E4A6
:1018BB00FE90004DE06052E4F0900097E0D394145A
:1018CB0040037414F0900098EFF0900097120FA65D
:1018DB007B017A007999120EF77B017A0079989047
:1018EB0000B0120245900097E09000B3F07A0079B7
:1018FB0016120EB912108AAE07EE700790004D0447
:10190B00F08006900060740DF0AF062212006E148A
:10191B00600A24FE60090470097F00227F01227F88
:10192B0002227F14225393FB759E02D2825394EFB3
:10193B00759F04C2945394DF759F05439302759E64
:10194B0011439340759E56439440759F5622E490E5
:10195B000067F0308602410743FC01C282E490002D
:10196B0065F0511251089000B4EFF09000655112E0
:10197B0051089000B5EFF09000D7E0700A9000B5D9
:10198B00E0900066F0801E9000D7E014FF9000B549
:10199B00E0FED39F4004AF0680069000D7E014FF13
:1019AB00900066EFF0900066E0D3941F4003741F25
:1019BB00F0E4900064F0900066E0FF900064E0C3F8
:1019CB009F501CA351125108900064E024B6F5827D
:1019DB00E43400F583EFF0900064E004F080D7D29C
:1019EB008253FCFE9000D5E06009E49000D7F090A4
:1019FB0000D5F07B017A0079B4120845228FFFE500
:101A0B00FE30E2FBAFFF22E0FF04F074D72FF5822C
:101A1B00E43400F583E0FF22A2BDE43390000FF025
:101A2B00C2BD22512390000EE0701253B3FE04F09E
:101A3B008EB58FB443B306D2BD43B3012290000FD2
:101A4B00E024FF92BD22E490000EF0EF600B75A531
:101A5B002B74FFFFFE512E800375A53B43AE027521
:101A6B00A40322900002742EF0E4F5CFEF4E602415
:101A7B00EEC313FEEF13FF900000EEF0A3EFF09018
:101A8B000000E07002A3E07007900000F0A304F0E8
:101A9B007F018002E4FF80AEE4900064F000000060
:101AAB0000000000000000900064E004F0E0B4646B
:101ABB00ECE490000EF0900002E0642E60037F00D7
:101ACB002290000074FFF5F01200E845F060047FEF
:101ADB000151517F0122C2AF90000EE0600575A548
:101AEB002B800375A53BD2AF75A40475A4072212F6
:101AFB00023C12006EFF2212023C74020200B4126E
:101B0B00023C8F8275830002008790004D04F09099
:101B1B000047E022EF131313541FFDEF5407FF741C
:101B2B00017E00A8070822F09000127401F022E059
:101B3B00FFA3E0900054CFF0A3EFF022E0FFA3E06F
:101B4B00900056CFF0A3EFF02212023C12006E145D
:101B5B00227B017A00796D90008EE0FD22F09000DF
:101B6B0047E014F022E490004CF090004EF022E499
:101B7B0090004EF090004CF022900051E0FF1217B5
:101B8B00EAEF22F090006FE0900052F022F090000C
:101B9B0051EFF02212023C74090200B490004D0484
:101BAB00F0E4A3F022900056E0FEA3E0FF22A2AFE8
:101BBB00E433FCC2AF22900047E0D3940022EFF055
:0E1BCB00E4FF90004D2290004DF0A304F022A4
:00000001FF
